:100000000C9491010C94A3010C94A3010C948B20EB
:100010000C94691D0C94A3010C94A3010C94A301EE
:100020000C94A3010C94A3010C94A3010C94191536
:100030000C94A3010C94A3010C94A3010C94A301B0
:100040000C94CD140C94A3010C94DA340C940A3261
:100050000C94A3010C94A3010C94A3010C94A30190
:100060000C94A3010C94A301FD05030606060906E2
:100070000E0616061E06B906B906B9062B062E068A
:1000800037064006B906B906B906B906B906B90673
:100090004C06560662066A066D0676067F068506DB
:1000A000B906B9068E069706A206D4087114711413
:1000B000DE08EB08F808050971140909711417091D
:1000C000711421092B093509711471147114450932
:1000D00052095F09103512354B354B354B354B35D1
:1000E0004B354B354B354B354B354B3518351A3574
:1000F0001C351E3520352235243526354B352A351D
:100100002C352E353035323534354B353635084AB9
:10011000D73B3BCE016E84BCBFFDC12F3D6C74311B
:100120009ABD56833DDA3D00C77F11BED9E4BB4C72
:100130003E916BAAAABE000000803F05A84CCDB23C
:10014000D44EB93836A9020C50B9918688083CA61D
:10015000AAAA2ABE000000803F000D0A4772626C06
:1001600020312E3165205B27242720666F7220689E
:10017000656C705D0D0A00244E005B4F50543A00D0
:100180005B5645523A312E31652E3230313730319F
:1001900031343A005B544C4F3A005B4739323A00F5
:1001A0003330003238005B4700204700204D0020EC
:1001B000530020460020540033382E005B47433A5A
:1001C00047005B484C503A24242024232024472015
:1001D000244920244E2024783D76616C20244E78DA
:1001E0003D6C696E6520244A3D6C696E6520245320
:1001F0004C50202443202458202448207E202120B5
:100200003F206374726C2D785D0D0A00536C656538
:1002100070696E6700526573746F72696E672073E0
:1002200070696E646C6500526573746F72696E6795
:100230002064656661756C74730050676D20456E4F
:100240006400436865636B204C696D697473004397
:100250006865636B20446F6F720044697361626C00
:10026000656400456E61626C656400436175746924
:100270006F6E3A20556E6C6F636B6564002724487F
:10028000277C2724582720746F20756E6C6F636B52
:1002900000526573657420746F20636F6E74696EAD
:1002A0007565005B4D53473A00414C41524D3A0051
:1002B0007C413A007C4F763A007C57434F3A007CB1
:1002C000506E3A007C46533A007C42663A007C57B6
:1002D000506F733A007C4D506F733A00536C6565F4
:1002E0007000446F6F723A00436865636B00416C45
:1002F00061726D00486F6D65004A6F6700486F6CF2
:10030000643A0052756E0049646C65000D0A005B2A
:100310005052423A006572726F723A006F6B0D0A6A
:10032000000011241FBECFEFD8E0DEBFCDBF27E015
:10033000A0E0B1E001C01D92AF35B207E1F70E9425
:10034000A5010C942E3B0C940000CF93DF93CDB706
:10035000DEB762970FB6F894DEBF0FBECDBF8091B7
:10036000C00082608093C0001092C50080E180933D
:10037000C4008091C10088698093C10080E090E052
:100380000E9459288A3009F031C545E550E061E006
:1003900070E08BE291E00E946128892B09F426C568
:1003A0008AB18C618AB9209A8AB1806E8AB98091AB
:1003B00081008F7E8093810080918100886080938E
:1003C0008100809180008C7F8093800080918000EC
:1003D0008F708093800080916E00887F80936E0084
:1003E00014BC15BC80916E00816080936E0087B153
:1003F000887F87B988B1876088B980916C008760F1
:1004000080936C00809168008260809368008CE02B
:10041000E1E0F1E0DF011D928A95E9F7789410920E
:100420001A018091700184FF03C081E080931A015A
:10043000ADE0CA2EA1E0DA2EB2E0EB2E80911A01D7
:1004400091E1EAE1F1E011929A95E9F780931A01BE
:1004500084E68093210180932201809323018CE024
:10046000D6011D928A95E9F710921901109239056B
:1004700010923A0510923B0510923C058091F801CC
:100480008093F9018FE3E0E8F1E011928A95E9F7B2
:1004900063EA71E080E00E94A728811103C087E031
:1004A0000E94C51E0E947D343B9A43980E94DA2028
:1004B0003D98459A80E00E94A11D0E94B9260E94A5
:1004C000CF310E9422210E94B0348AE591E00E943F
:1004D000B21E8091700183FF11C00E94BA20882350
:1004E00069F081E080931A0183EA92E00E94B21ED3
:1004F00082E492E00E94B21E0E945C2080911A0168
:100500008178A1F083EA92E00E94B21E8DE792E02A
:100510000E94B21E0E945C2081E080931A0100E0DC
:1005200010E0E3E02E2EF4E03F2E29C010921A01D5
:100530000E94D91EF4CFE92FF0E0E15EF94F8081EF
:100540009F5F913809F490E09093F9018F3FE9F0B3
:100550008A3021F50E94383380911B0181116ECFC2
:10056000E02FF0E0E15FF84F1082F12FF170FF2EE5
:1005700010FF18C08BE00E94C51E00E010E09091B3
:10058000F9018091F8018913D6CF0E9402320E94AE
:10059000383380911B01882391F350CF8D3009F0BF
:1005A000FDC3D8CF80910F07882309F4F4C38432A8
:1005B00009F0E9C321E0298B80911007833409F108
:1005C00034F4882361F0843209F006C11AC08A34F9
:1005D00059F08835B1F0873409F0FEC012C082ECC2
:1005E00091E00E94B21ECDC380911A018F7D09F067
:1005F000B8C3809111078D3309F0BBC30E94FF0679
:10060000B3C3909111079111B4C3833409F4B2C0FC
:100610001CF4843239F0B5C3873469F0883509F4A5
:10062000C9C0AFC380911A018871F82E09F099C32F
:100630000E944A1FA6C38CEB91E00E94B21E8091DB
:1006400080018C3838F088EB91E00E94B21E8091D6
:1006500080018A580E948C1E89EA91E00E94B21E95
:10066000809186018A5C0E948C1E89EA91E00E943A
:10067000B21E809184018F5E0E948C1E89EA91E0F7
:100680000E94B21E8091820195E1981B892F0E94E1
:100690008C1E89EA91E00E94B21E80918301865AE5
:1006A0000E948C1E89EA91E00E94B21E8091810115
:1006B000AEE5A81B8A2F0E948C1E8091870188239B
:1006C00099F08CEA91E00E94B21E809187018330FC
:1006D00029F08E3139F0823039F404C080E30E9471
:1006E000343202C00E948C1E8CEA91E00E94B21E3D
:1006F00080918901803131F0803231F0811107C061
:1007000085E303C083E301C084E30E9434328CEAB2
:1007100091E00E94B21E80918801882311F088E345
:1007200001C089E30E94343285EB91E00E94B21E41
:10073000809192010E948C1E82EB91E00E94B21E79
:1007400060918E0170918F01809190019091910143
:100750000E94511E8FEA91E00E94B21E60918A01B0
:1007600070918B0180918C0190918D0140E00E94ED
:10077000B31D0EC080911A01823069F40E94B63414
:1007800083EA92E00E94B21E8AE592E00E94B21EC5
:100790000E945C20F6C28111E4C2E0921A0183EA51
:1007A00092E00E94B21E83E692E00E94B21E0E9476
:1007B0005C203BC080911A01813009F0E2C283EADB
:1007C00092E00E94B21E8BE692E00E94B21E0E944E
:1007D0005C2010921A01D5C290911A01923008F053
:1007E000C0C2893409F49FC034F4833271F0883474
:1007F00009F45AC034C1823509F4DBC0833509F4E9
:1008000080C08E3409F02BC104C180911107811181
:10081000B0C210E0BE016F5F7F4F812F0E94A728FA
:10082000811105C087E00E94C51EF12CAAC286EA8C
:1008300091E00E94B21E163029F0173041F480EA90
:1008400091E002C083EA91E00E94B21E04C086E3F8
:10085000810F0E948C1E8AE30E943432CE010196E1
:100860000E946F1E0E945C201F5F183099F68AE973
:1008700091E00E94B21E8FEA91E00E946F1E0E94DA
:100880005C2084E991E00E94B21E6091BB017091EE
:10089000BC018091BD019091BE010E94601E0E942A
:1008A0005C200E9461206DC28091700184FF56C25D
:1008B00030921A018091110781115BC20E94CF20F2
:1008C00084E00E948D2483E00E948D240E943833AE
:1008D00080911B01811106C00E94B0340E94222128
:1008E0000E94DA2080911B0181114BC210921A01E3
:1008F0000E94E31480911107811143C20E94D91E06
:1009000094CF809111078C3409F033C28091120783
:10091000803509F02EC28091130781112AC280E828
:100920000E94C91C2EC2E98A80911107811124C03E
:1009300040E550E06EEA73E08FE097E00E946128A6
:10094000892B51F410920F0740E550E06FE077E0FB
:100950008EEA93E00E94CA2680E891E00E94B21ECF
:100960000E94781C0E945C208AE791E00E94B21EDF
:1009700086E50E9434320CCF298A8D3309F0F9C103
:1009800083E0282F30E0F901E15FF84F9081D90131
:10099000A45FB84F9C938F5F90819111F2CF898BA8
:1009A00040E550E06FE077E08EEA93E00E94CA26CF
:1009B000E8C180911107833509F0DBC180911207EE
:1009C000843509F0D6C1809113078D3309F0D1C168
:1009D000809115078111CDC180911407843239F0BF
:1009E0008A3239F0833209F0C4C182E003C081E069
:1009F00001C08FEF0E94322783EA92E00E94B21E6C
:100A000087E292E00E94B21E0E945C200E94B634EF
:100A1000B8C1E98A8091110781111DC010E0812FB2
:100A20000E94851C811104C087E00E94C51E0EC073
:100A300087E791E00E94B21E812F0E948C1E8DE3F9
:100A40000E9434320E94781C0E94C11E113009F4A9
:100A500098C111E0E4CF911184C111E001C010E010
:100A6000BE01635F7F4FCE0141960E94AD3581117B
:100A700003C072E0F72E85C1E98981E08E0F898B72
:100A8000F0E0E15FF84F90819D3309F072C11123CE
:100A900079F1482F50E0282F30E0F901E15FF84F5D
:100AA0009081241B350BD901A15FB84F9C938F5FB8
:100AB00090819111F0CF898B0E94FF06811154C162
:100AC0006D857E858F8598890E94FB3A0E94393812
:100AD0006A8B0E9444346A89B1E56B9FC00111247E
:100AE00040E550E06FE077E09D5F0E94CA269DCE12
:100AF000BE016F5F7F4FCE0141960E94AD358823C6
:100B000009F4B7CFE989F0E0E15FF84F8081811106
:100B100030C18D849E84AF84B88820E030E04FE7F8
:100B200053E4C501B4010E94D83918160CF421C150
:100B300049805A806B807C80C501B4010E9439389D
:100B4000062F20E030E0A901C301B2010E94B637B0
:100B500087FD0CC1043608F440C0045680E0033021
:100B600098F510E0000F111F000F111F823079F06F
:100B7000F801833011F1813019F0E55DFE4F02C0BC
:100B8000E95CFE4F4082518262827382E4C00D5B59
:100B90001E4F20E030E040E752E4C301B2010E9462
:100BA000183A20E030E040E752E40E94183AF80199
:100BB0006083718382839383CEC0E15BFE4F77FABB
:100BC000709477F87094DECF8F5F0A3008F4D1C04C
:100BD000843009F4CEC00A50C2CFC301B2010E94D2
:100BE000FB3A0E94393810E00132110508F0C1C00B
:100BF000F801EC5CFF4F0C94A036633008F4BCC0E5
:100C000060935B01A8C060935E01A5C060935C0126
:100C100002C060935D010E94B3149DC08091700179
:100C2000662311F0846095C08B7F93C08091700122
:100C3000662311F080648DC08F7B8BC08091700122
:100C4000662311F0806801C08F778093700180E087
:100C50000E94A11D80C060935F017DC04092600131
:100C600050926101609262017092630174C040927F
:100C700064015092650160926601709267016BC0D9
:100C800080917001662311F0816001C08E7F809396
:100C900070010E94551D5FC080917001662321F094
:100CA00084FF6DC0806255C08F7D53C080917001FC
:100CB000662311F0886001C0877F809370010E94D5
:100CC000DA2049C080917001662311F0806141C033
:100CD0008F7C3FC0609371013EC040927201509280
:100CE0007301609274017092750135C04092760173
:100CF0005092770160927801709279012CC070E077
:100D000070937B0160937A0126C040927C015092DF
:100D10007D0160927E0170927F011DC0409268014A
:100D20005092690160926A0170926B0108C0409212
:100D30006C0150926D0160926E0170926F010E9481
:100D40007D3409C080917001662311F0826001C07A
:100D50008D7F809370010E94092713C055E0F52E06
:100D600010C048E0F42E0DC0F82E0BC034E0F32E76
:100D700008C023E0F22E05C096E0F92E02C08AE0FA
:100D8000F82E8F2D08C080911A01817211F089E030
:100D9000F2CB0E94FF060E94D11EEFCB112329F057
:100DA000893209F0ECCB1D7FEACB813208F4E7CB26
:100DB0008F3209F4E4CB883299F08B3399F00F34F9
:100DC00098F4202F30E0E1E0E00F9FE9980FD9017F
:100DD000A15FB84F9A3108F480528C930E2FCFCB7D
:100DE00012E0CDCB14E0CBCB11E0C9CB87E00E9461
:100DF000C51E8FEF0E9432270E944A1FD1CA2F9230
:100E00003F924F925F926F927F928F929F92AF929A
:100E1000BF92CF92DF92EF92FF920F931F93CF93E7
:100E2000DF93CDB7DEB7CE54D1090FB6F894DEBF4D
:100E30000FBECDBF89E3EFEBF1E0DF011D928A9594
:100E4000E9F78AE0E0E8F1E0A0ECB1E001900D9272
:100E50008A95E1F780910F07843211F00C94951474
:100E600081E08093C0011092C10183E08A8FB1E0DC
:100E7000BBA3212C312C18AA1FA6C12C1B8E1F8EA0
:100E8000DD24D3941AE0A12EB12C0EE581E6882E44
:100E900083E0982E8A8DE82FF0E0E15FF84FE08044
:100EA000EE2009F43EC29FEB9E0D9A3110F00C9497
:100EB00061148F5F8A8FBE016A5E7F4FCE014A96B2
:100EC0000E94AD35882311F40C9463144E885F881A
:100ED000688C798CC301B2010E94FB3A0E943938B8
:100EE000162F70E080E090E00E946A389B01AC0110
:100EF000C301B2010E94C03620E030E048EC52E469
:100F00000E94183A0E94853A0E943938CB01E7E4E2
:100F1000EE1629F0FDE4EF1609F4EAC034C11832E8
:100F200009F4C5C020F5143168F4113108F08AC005
:100F3000143009F452C008F464C01A3009F445C0F2
:100F40000C9471141C3109F440C050F4163110F0A7
:100F50000C94711425E1211B2093C20126E0ACC042
:100F60001E3199F1163209F44CC00C9471141D33E2
:100F700009F497C0A8F4153381F140F41B3209F449
:100F80007AC0113309F477C00C9471141C3310F03B
:100F90000C9471146AEC610F6093C60129E08CC057
:100FA0001C3538F41A3508F053C0103581F10C9413
:100FB00071141C3551F01F3510F00C947114202F52
:100FC000211B2093C10125E077C0009731F42F8DBC
:100FD00021110C94651431E03F8F1093BF01212F34
:100FE0002D7F2C3119F01C3509F063C0009721F0DA
:100FF0000A9711F00C947114610F6093BF0120E007
:1010000060C06F8D61110C946514A2E0AF8F1093D6
:10101000C001163209F04FC08431910559F08E316C
:10102000910541F08832910529F08233910511F044
:101030000C947114B5010E946A3666576093C00122
:1010400021E03FC06FEE610F6093C40122E034C025
:10105000892B31F466EA610F6093C30123E031C04C
:101060006A30710511F00C9471141A3511F40C9456
:10107000711424E026C0BF8DB1110C946514113396
:1010800031F41092C50128E0E3E0EF8F1AC00A970F
:1010900011F00C947114D092C50128E0F3E0FF8F99
:1010A00010C0892B11F00C9471142AE00AC027E0BB
:1010B00003C020E001C021E0892B19F087E10C94E6
:1010C000991481E090E002C0880F991F2A95E2F7F9
:1010D0002FA538A928233923232B19F085E10C9457
:1010E00099142FA538A9282B392B38AB2FA7D2CE8E
:1010F000892B21F7163018F4133058F016C0183029
:1011000010F40C9471141A30F0F01E3159F00C9454
:101110007114112319F0113001F104C033E0309340
:10112000C7011BC01093C70118C0143021F015303F
:1011300031F080E101C080E28093C90102C01092C9
:10114000C9018CE00BC0193021F080E48093C80104
:1011500002C01092C8018DE001C08BE0A1E0B0E0B8
:1011600002C0AA0FBB1F8A95E2F72FA538A92A2330
:101170003B23232B09F0B2CFEFA5F8A9EA2BFB2BD9
:10118000F8ABEFA787CE8E2DEE0C990BAA0BBB0BFD
:10119000FC01E654F109E531F10510F00C947114ED
:1011A000EB5AFF4F0C94A0364092CA015092CB01EB
:1011B0006092CC017092CD0180E08DC04092CE0152
:1011C0005092CF016092D0017092D101FC2DF1605C
:1011D000CF2E81E080C04092D2015092D301609224
:1011E000D4017092D5012C2D2260C22E82E073C0F2
:1011F0004092D6015092D7016092D8017092D901E5
:101200003C2D3460C32E83E066C01093DA0184E085
:1012100062C0C301B2010E9432386093DB01709357
:10122000DC018093DD019093DE0185E054C04092A3
:10123000DF015092E0016092E1017092E20186E0EC
:101240004AC04092E3015092E4016092E50170923D
:10125000E60187E040C04092E7015092E8016092C9
:10126000E9017092EA0188E036C020E030E04FE703
:1012700053E4C301B2010E94D839181614F40C9437
:1012800067141093EB0189E026C04092EC01509264
:10129000ED016092EE017092EF016B8D61606B8FDA
:1012A0008AE019C04092F0015092F1016092F2017F
:1012B0007092F3018B8D82608B8F8BE00CC040921B
:1012C000F4015092F5016092F6017092F7019B8D46
:1012D00094609B8F8CE0EE24E394F12C082E02C0E6
:1012E000EE0CFF1C0A94E2F7970122213321232BF5
:1012F00011F00C946914D40102C0B595A7958A9594
:10130000E2F7A0FF0BC020E030E0A901C301B20169
:101310000E94B63787FF02C00C946B142E283F281A
:10132000B9CDBB8DBB2329F0EF8DE11102C0F2E0F6
:10133000FF8F25FE0FC08091DB019091DC01A09111
:10134000DD01B091DE0181389649A849B10514F05C
:101350000C946D143BA13323F9F020FC02C00C94D3
:1013600077148091C2018130C9F523E333E34BEC5C
:1013700051E46091CA017091CB018091CC019091B0
:10138000CD010E94183A6093CA017093CB018093FB
:10139000CC019093CD0122C08091C101813041F4F4
:1013A0006F8D6230D9F420FC02C00C94771416C003
:1013B00080918101811112C020FCD3CF80918E01D8
:1013C00090918F01A0919001B09191018093CA01F9
:1013D0009093CB01A093CC01B093CD0130FC10C011
:1013E00080918A0190918B01A0918C01B0918D0127
:1013F0008093E7019093E801A093E901B093EA019B
:101400008091BF01843039F426FC03C08CE10C9438
:101410009914E89426F88091C401882369F08130FA
:1014200029F48FAF1DAA92E09BAB0BC01FAEA2E0C8
:10143000ADABB1E0BBAB05C0E2E0EFAFF1E0FDABBF
:101440001BAA8091C201813021F02F8D2330A9F594
:101450002BC0ACEEEA2EA1E0FA2E00E010E03B8DAE
:10146000A32EB12CC501002E02C0959587950A9434
:10147000E2F780FF10C023E333E34BEC51E4D701E4
:101480006D917D918D919C910E94183AF701608336
:101490007183828393830F5F1F4FF4E0EF0EF11C83
:1014A00003301105F9F6D1CF8091C501813029F4BF
:1014B0002B8D243011F00C946F148CE0E3EAF1E0F2
:1014C000DE01119601900D928A95E1F78FA598A9FA
:1014D00091FD09C09091BF019FA39A30C9F09C353E
:1014E00009F4AFC010C18091C601873018F08DE1BA
:1014F0000C94991490918601981761F3BE016F5F67
:101500007F4F0E94A728882311F40C948514E2CF02
:10151000AB8DA11103C08AE10C949914C1018075AF
:101520009927892B09F472CF6091DF017091E00156
:101530008091E1019091E2010E94FB3A0E943938CA
:101540006730A8F68091DA01843141F0823011F0E1
:101550000C94711427FE02C00C947114BFEA2B2264
:10156000662319F0615069A703C0E091C601E9A79D
:101570006EEC71E089A50E94A728882311F40C94D1
:101580008514D090DA014090BB015090BC0160906E
:10159000BD017090BE010EEC11E0F7E9AF2EF1E055
:1015A000BF2EE12CF12CFB8D8F2E912CC4010E2C23
:1015B00002C0959587950A94E2F780FF34C024E134
:1015C000D21228C0D50158962D913D914D915C9134
:1015D0005B976D917D918D919C910E94C036F80131
:1015E000268D378D40A151A10E94C036D8016D9340
:1015F0007D938D939C931397B2E0EB16F10499F4CD
:10160000A30192010E94C036F80160837183828336
:10161000938309C0F801868D978DA0A1B1A1808325
:101620009183A283B383FFEFEF1AFF0A0C5F1F4F72
:1016300024E0A20EB11C33E0E316F10409F0B6CFAA
:101640002FC16B8D662309F466CF4090BB0150908B
:10165000BC016090BD017090BE010CEE11E0A12CA8
:10166000B12CE12CF12C862E912CF501E058FE4F87
:10167000C4010E2C02C0959587950A94E2F780FF6D
:101680002BC0A1E0B0E0AC0FBD1FAA0DBB1D2D917A
:101690003D914D915C916789708D818D928D0E94F5
:1016A000C036D8012D913D914D915C910E94C0367C
:1016B000F8016083718382839383F2E0EF16F10473
:1016C000A1F4A30192010E94C036D8016D937D93CD
:1016D0008D939C93139709C087A590A9A1A9B2A93E
:1016E000F80180839183A283B383FFEFEF1AFF0A8F
:1016F00024E0A20EB11C0C5F1F4F33E0E316F1048F
:1017000009F0B3CFCCC06F8D633071F48FA18E31EF
:1017100009F48BC0853309F4BCC08C3109F0BFC01B
:101720006EEC71E086E084C09B8D992379F3D090B4
:10173000C3014090BB015090BC016090BD0170900E
:10174000BE01E7E9AE2EE1E0BE2E0CEE11E0DE01B7
:1017500011964D01E12CF12CE92FF0E0FAA7E9A751
:1017600089A59AA50E2C02C0959587950A94E2F753
:1017700080FD0BC0F50180819181A281B381F801C8
:1017800080839183A283B3833FC0FFA1F533E1F14E
:10179000D11029C0D50158962D913D914D915C9164
:1017A0005B97F40160817181828193810E94C136CF
:1017B000D8012D913D914D915C910E94C136F80167
:1017C0006083718382839383F2E0EF16F104E1F486
:1017D000A30192010E94C136D8016D937D938D9330
:1017E0009C93139711C0F50120813181428153816F
:1017F000D8016D917D918D919C910E94C136F80127
:101800006083718382839383FFEFEF1AFF0A24E0E2
:10181000A20EB11C0C5F1F4F34E0830E911C63E0DD
:10182000E616F10409F09CCF71CF6EEC71E087E011
:101830000E94A728882311F40C9485148B8D8111A4
:1018400003C019A61F8E2CC020E030E080E090E09D
:10185000AB8D4A2F50E0BA01082E02C075956795EE
:101860000A94E2F760FD0EC0F901E058FE4F878848
:10187000908CA18CB28CF901E154FE4F8786908A3E
:10188000A18AB28A01962C5F3F4F8330910519F7E8
:1018900006C08091C001823010F00C94731419A618
:1018A000B091C001BFA3B03529F4EB8DE1110C94C8
:1018B000751475C2FF8DF23009F071C22FA121118C
:1018C00004C03B8D31116BC22BC020E030E0A90178
:1018D0006091CA017091CB018091CC019091CD01B2
:1018E0000E94B637882311F40C9477146FA16C38DA
:1018F00009F43FC240F46230A9F06330B1F06130C6
:1019000009F04DC20AC08FA18E3809F432C208F422
:101910002DC28F3809F42AC242C29B8D91113FC259
:101920001F8E3DC2ABA1A460ABA3BB8DBB2309F44A
:10193000F2CDFBA9EF2FF0E0FCA7EBA73DA9232FE9
:1019400030E03CAF2BAF81E090E07C010DA802C0FD
:10195000EE0CFF1C0A94E2F70BA802C0880F991F37
:101960000A94E2F7E82AF92A8B2F90E08E219F2132
:10197000892B09F4BEC7CF01880F991F880F991FC3
:10198000FC01E154FE4FDC01A058BE4F57962D914B
:101990003D914D915C915A9765A576A587A590A933
:1019A0000E94C0364B015C018BAD9CAD880F991F26
:1019B000880F991FFC01E154FE4FDC01A058BE4F77
:1019C00057962D913D914D915C915A9765A576A5BD
:1019D00087A590A90E94C0366FAB78AF89AF9AAF48
:1019E00081010078112727FEF2C0E89427F84CE027
:1019F00050E06CEE71E087E991E00E94213B892B79
:101A000011F481E296C78091C2018130B1F423E3E1
:101A100033E34BEC51E46091E3017091E401809178
:101A2000E5019091E6010E94183A6093E3017093FA
:101A3000E4018093E5019093E6014090E30150902A
:101A4000E4016090E5017090E601A5019401C501F3
:101A5000B4010E94183A27966CAF7DAF8EAF9FAF4E
:101A600027972FA938AD49AD5AADCA01B9010E94D7
:101A7000183A2B966CAF7DAF8EAF9FAF2B9720E0BF
:101A800030E040E850E4C301B2010E94183AA301DB
:101A900092010E94183A27962CAD3DAD4EAD5FAD38
:101AA00027970E94C0362B962CAD3DAD4EAD5FAD55
:101AB0002B970E94C0366B017C0120E030E0A90129
:101AC0000E94B63787FD17C7C701B6010E94B73A13
:101AD0006B017C012B962CAD3DAD4EAD5FAD2B97D0
:101AE00027966CAD7DAD8EAD9FAD27970E94C13618
:101AF0000E94B73A9B01AC01C701B60190580E9401
:101B0000C0376B017C016FA1633021F4F7FAF094C8
:101B1000F7F8F09420E030E0A901C301B2010E947F
:101B2000B63787FF0FC0F7FAF094F7F8F094D301B7
:101B3000C201B0588093E3019093E401A093E501C2
:101B4000B093E6010BA51CA5000F111F000F111F7C
:101B50000D531E4FA70196016FA978AD89AD9AADBF
:101B60000E94183A9B01AC01C501B4010E94C03625
:101B700020E030E040E05FE30E94183AD8011B9675
:101B80006D937D938D939C931E970BAD1CAD000FB1
:101B9000111F000F111F0D531E4FA7019601C50104
:101BA000B4010E94183A9B01AC016FA978AD89ADD0
:101BB0009AAD0E94C13620E030E040E05FE30E9431
:101BC000183AF8016387748785879687E8C0D12C17
:101BD000EC20FD20EF2809F490C6F1EF2F22809130
:101BE000C201813009F47DC0EBA5FCA5EE0FFF1FFB
:101BF000EE0FFF1FED53FE4FC384D484E584F684BB
:101C0000A7019601C501B4010E94C0362B013C0119
:101C1000EBADFCADEE0FFF1FEE0FFF1FED53FE4FC0
:101C200083859485A585B6858BA79CA7ADA7BEA700
:101C30009C01AD016FA978AD89AD9AAD0E94C03607
:101C40004B015C01A3019201C301B2010E94183A49
:101C50002B013C01A5019401C501B4010E94183A71
:101C60009B01AC01C301B2010E94C1360E94B73A88
:101C70004B015C01A7019601C701B6010E94183A09
:101C80006B017C012BA53CA54DA55EA5CA01B90140
:101C90000E94183A9B01AC01C701B6010E94C136EF
:101CA0000E94B73A6B017C016093E3017093E401F9
:101CB0008093E5019093E6019B01AC01C501B4015D
:101CC0000E94C0364B015C01E894B7F82AE037ED7A
:101CD00043EA5BE3C501B4010E94D83918164CF100
:101CE0005EC09FEBE92E91E0F92EC601002E02C0E6
:101CF000959587950A94E2F780FF12C023E333E3BA
:101D00004BEC51E4D7011F966D917D918D919C9183
:101D100052970E94183AF7016787708B818B928BDC
:101D20000F5F1F4FF4E0EF0EF11C03301105E9F6D1
:101D30005BCF20E030E040E05FE3C501B4010E94EA
:101D4000D83918160CF45DCE2FE632E143E85AE399
:101D5000C701B6010E94183A9B01AC01C501B4014C
:101D60000E94D83918160CF44CCE19C02BA1206152
:101D70002BA38FA18E58823018F43BA138603BA36F
:101D80006B8D662309F4C7CB4CE050E06CEE71E03C
:101D900087E991E00E94213B892B09F432CE2BA1E7
:101DA00021708BA180FF03C0C1018E7D03C0C101E2
:101DB0008E7D9C7FAF8DA111937E892B09F09FC5ED
:101DC0008E01035F1F4F89E0F80111928A95E9F7B0
:101DD000222309F44BC08FA598A9867B892B09F093
:101DE00090C58091BF01853311F081118AC5809122
:101DF0008A0190918B01A0918C01B0918D01898B0A
:101E00009A8BAB8BBC8B9091890180918801892B37
:101E10004091CA015091CB016091CC017091CD01EC
:101E20004D875E876F87788B84608D8B8091700182
:101E300085FF06C08CEE91E00E94D21C811163C523
:101E4000B8018CEE91E00E945C3580911A018111FD
:101E50005EC50E94A926892B09F459C580E28093AA
:101E60001A010E94C8280E94611751C58091700113
:101E7000F090890181FF26C09FA19150933018F006
:101E8000FBA1F064FBA32B8D222339F03F8D323070
:101E900021F46BA160686BA315C080E1F81212C039
:101EA0009091800191508BA18074933030F48823FD
:101EB00049F09BA190629BA305C0811103C0ABA117
:101EC000A062ABA38091DB019091DC01A091DD01C8
:101ED000B091DE018093930190939401A0939501BA
:101EE000B09396018091C10180938101882311F004
:101EF00088E08D8B8091CA019091CB01A091CC019B
:101F0000B091CD0180938E0190938F01A0939001A9
:101F1000B09391018D879E87AF87B88B8090E70142
:101F20009090E801A090E901B090EA01A501940128
:101F300060918A0170918B0180918C0190918D014B
:101F40000E94B637BBA1B074EB2E811103C0EBA188
:101F5000E5FF20C0FF2071F0FBA1F7FD0BC0EE20D4
:101F600021F040E050E0BA0102C0B501A4018F2D7C
:101F70000E9455348091E7019091E801A091E90118
:101F8000B091EA0180938A0190938B01A0938C0118
:101F9000B0938D01E1100CC080918A0190918B016A
:101FA000A0918C01B0918D01898B9A8BAB8BBC8BEE
:101FB0008091EB01809392018091C90190918901F8
:101FC000981751F049895A896B897C890E94553448
:101FD0008091C901809389019D8980918901892B14
:101FE0008D8B8091C801909188019817D1F09091C4
:101FF0001A01923051F02F968FAF2F970E944434E0
:102000002F968FAD2F970E9450328091C801811179
:1020100003C01092880105C090918801892B80939C
:1020200088019D8980918801892B8D8B8091BF01CA
:10203000843049F56091DF017091E0018091E10108
:102040009091E20120911A012230E9F02C966FAFB5
:102050002C972D967FAF2D972F968FAF2F972E967B
:102060009FAF2E970E94443440E02C966FAD2C9782
:102070002D967FAD2D972F968FAD2F972E969FADD6
:102080002E970E94F1208091C40180938401809159
:10209000C201809382012F8D233071F58091C5019B
:1020A00080938501811108C01092F4011092F5010E
:1020B0001092F6011092F701C090F401D090F50152
:1020C000E090F601F090F701A70196016091BB0145
:1020D0007091BC018091BD019091BE010E94B63704
:1020E000882351F0C092BB01D092BC01E092BD01A7
:1020F000F092BE010E94551D8091C601909186010B
:10210000981769F0809386018CE0FE013196A3EA6E
:10211000B1E001900D928A95E1F70E94551D8091E2
:10212000C301809383018091BF018632F1F138F4BD
:102130008C3109F18E31F9F08A3069F04FC08C355D
:10214000D1F1863609F441C0883209F047C067E909
:1021500071E087E02DC06EEC71E089A50E94162722
:102160008091860139A5831339C08CE0EEECF1E053
:10217000A3EAB1E025C08D8981608D8B6F8D6623C8
:1021800029F0B8018CEE91E00E945C35B8018EEC2C
:1021900091E00E945C358CE0EEECF1E0A7E9B1E063
:1021A00001900D928A95E1F719C067E971E086E028
:1021B0000E94162713C08CE0ECEEF1E0AFEAB1E02C
:1021C00001900D928A95E1F707C08CE0EFEAF1E00B
:1021D000DF011D928A95E9F70E94551D8091C0018B
:1021E00080938001803509F41EC3BF8DB23009F0A1
:1021F0001AC3813021F4BE01635F7F4F06C0811195
:1022000009C08D8981608D8BB8018CEE91E00E94B0
:102210005C3500C38250823008F095C28091E301A2
:102220009091E401A091E501B091E6018F8F98A310
:10223000A9A3BAA3ABA994E0A99F70011124F70147
:10224000E956FE4FF8A7EFA3970122533E4F3AA756
:1022500029A7D9014D905D906D907C9020813181AE
:1022600042815381C301B2010E94C1366FA778AB8E
:1022700089AB9AABEDA9B4E0EB9F800111249801E2
:1022800029563E4F3CAB2BABC80182539E4F9EABB1
:102290008DABDC018D909D90AD90BC90F9012081BB
:1022A000318142815381C501B4010E94C1366FABB7
:1022B00078AF89AF9AAF77FA709477F87094D501B8
:1022C000C401B0588B8F9C8FAD8FBE8FF701E45146
:1022D000FE4F2FA538A949A95AA960817181828131
:1022E00093810E94C0366B017C01F801E451FE4FDE
:1022F0002FA938AD49AD5AAD60817181828193813A
:102300000E94C0364B015C01A7019601C301B201D6
:102310000E94183A6BA77CA78DA79EA7A5019401E0
:102320006B8D7C8D8D8D9E8D0E94183A9B01AC012A
:102330006BA57CA58DA59EA50E94C1366BA77CA729
:102340008DA79EA7A5019401C301B2010E94183A6E
:102350004B015C01A70196016B8D7C8D8D8D9E8D4F
:102360000E94183A9B01AC01C501B4010E94C0361D
:102370002BA53CA54DA55EA50E9440376B017C01B5
:102380009BA192FF13C02DEB37E346E055EBC7014D
:10239000B6010E94D83987FD1DC02BED3FE049EC06
:1023A00050E4C701B6010E94C03612C02DEB37E3DE
:1023B00046E055E3C701B6010E94B637181654F03F
:1023C0002BED3FE049EC50E4C701B6010E94C13655
:1023D0006B017C018090640190906501A090660182
:1023E000B09067012F8D38A149A15AA1CA01B90146
:1023F0000E94C136A50194010E94C0369B01AC0128
:10240000C501B4010E94183A0E94B73A4B015C0121
:1024100020E030E040E05FE3C701B6010E94183AD7
:102420002F8D38A149A15AA10E94183A9F77A50182
:1024300094010E94C0370E94A5380E9439387CA7B9
:102440006BA7DB01AB2B09F4D6CE1D894B01A12C68
:10245000B12C13FF12C0C501B4010E9468389B0162
:10246000AC016D857E858F8598890E94183A6D87AD
:102470007E878F87988B177F1D8BC501B4010E94C3
:1024800068384B015C019B01AC01C701B6010E9499
:10249000C0376BA37CA38DA39EA3EFADB4E0EB9FED
:1024A000C00111248C0109561E4FFC01E451FE4F5E
:1024B000D8012D913D914D915C9160817181828116
:1024C00093810E94C036A50194010E94C0372796CF
:1024D0006CAF7DAF8EAF9FAF27972BA13CA14DA1D5
:1024E0005EA1CA01B9010E94183A9B01AC0160E0EB
:1024F00070E080E090E40E94C0366B017C012BEA22
:102500003AEA4AE25EE36BA17CA18DA19EA10E9402
:10251000183A4B015C0120E030E040E850E4C7018C
:10252000B6010E94C1369B01AC01C501B4010E94F5
:10253000183A6BAF7CAF8DAF9EAF20E030E040E04B
:102540005FE3C701B6010E94183A23966CAF7DAFD6
:102550008EAF9FAF23971F8E22242394312CEBA59F
:10256000FCA52E163F0609F446CEBF8DBC3008F000
:1025700044C023962CAD3DAD4EAD5FAD23976B8D22
:102580007C8D8D8D9E8D0E94183A6B017C012BAD48
:102590003CAD4DAD5EADC301B2010E94183AA7013A
:1025A00096010E94C1367B016C0123962CAD3DAD96
:1025B0004EAD5FAD2397C301B2010E94183A4B01A3
:1025C0005C012BAD3CAD4DAD5EAD6B8D7C8D8D8DCD
:1025D0009E8D0E94183A9B01AC01C501B4010E9476
:1025E000C0362B013C01EF8DEF5FEF8F47015601A5
:1025F0008B8E9C8EAD8EBE8E65C0B10180E090E06A
:102600000E9468382BA13CA14DA15EA10E94183AFE
:102610006B017C010E94BB376B8F7C8F8D8F9E8FEF
:10262000C701B6010E94A93A4B015C01A9A5BAA550
:10263000CD90DD90ED90FC90F7FAF094F7F8F094DF
:10264000ADA9BEA98D919D910D90BC91A02D8F8FAC
:1026500098A3A9A3BAA32B8D3C8D4D8D5E8DC70188
:10266000B6010E94183A2B013C01A50194016F8D1F
:1026700078A189A19AA10E94183A9B01AC01C301DB
:10268000B2010E94C1362B013C01A5019401C70192
:10269000B6010E94183A6B017C012B8D3C8D4D8D4B
:1026A0005E8D6F8D78A189A19AA10E94183A9B0135
:1026B000AC01C701B6010E94C0366B8F7C8F8D8F35
:1026C0009E8F1F8EA30192016FA578A989A99AA94F
:1026D0000E94C136EFA1F8A5608371838283938342
:1026E0002B8D3C8D4D8D5E8D6FA978AD89AD9AADEA
:1026F0000E94C136ABA9BCA96D937D938D939C9329
:10270000139727962CAD3DAD4EAD5FAD2797F801E1
:1027100060817181828193810E94C136D8016D935D
:102720007D938D939C931397BE01635F7F4F87E9E1
:1027300091E00E945C3580911B0181116BC0BFEF5D
:102740002B1A3B0A0CCF8D8984608D8B80911A01E6
:10275000823009F45FC00E94443480911B018111D2
:1027600062C0FBA1F071FF2E10921F012BA123FB71
:10277000882780F90E94A11D86B180729091000186
:10278000891749F084E00E94B91C0E94383380E028
:102790000E94A11D48C0B8018CEE91E00E945C35FA
:1027A00081E08093190182E00E94C91C0E943833A5
:1027B00080911B01811137C080911A018111F6CFE0
:1027C00080911901813081F4FF2051F08CE0E1E02B
:1027D000F1E0ADE0B1E001900D928A95E1F707C01C
:1027E00085E00E94B91C03C081E080931F01109214
:1027F000190180E00E94A11D0E9438330E94CF3150
:102800000E94B9260E9422210E94612080911F010E
:10281000811188C08CE0ECEEF1E0A7E9B1E0019015
:102820000D928A95E1F78091C701809387018823F3
:1028300009F47FC00E9444348091870190911A016D
:10284000833041F49230D1F188E00E94C91C0E948B
:10285000383334C081E0809380011092840110925B
:1028600083011092810110928601109289011092C9
:10287000880184E6809321018093220180932301C3
:10288000923091F063EA71E080E00E94A7288823EB
:10289000E1F10E94551D40E050E0BA0180E00E9445
:1028A0000D3380E00E94503283EA92E00E94B21E13
:1028B0008AE392E00E94B21E0E945C20109287017F
:1028C0002FC081E036C082E034C088E132C086E2A9
:1028D00030C089E12EC084E02CC08BE12AC085E2A3
:1028E00028C084E126C08EE124C08FE122C086E1A9
:1028F00020C080E21EC082E21CC083E21AC084E2D3
:1029000018C080E116C08FE014C087E012C08CE0D0
:10291000ECEEF1E0A7E9B1E001900D928A95E1F7C4
:1029200080E007C00E94B0347ECF1A8E1BA20C94A8
:102930003907C25BDF4F0FB6F894DEBF0FBECDBFC5
:10294000DF91CF911F910F91FF90EF90DF90CF908B
:10295000BF90AF909F908F907F906F905F904F90BF
:102960003F902F90089580915C01682F90E0209116
:102970005D01422F80FD94E0822F817020FD80E276
:1029800061FD986041FD806462FD906142FD806858
:1029900090933D0580933E0508951F920F920FB6C8
:1029A0000F9211248F939F938BB190913D059C7151
:1029B000837E892B8BB915BC9F918F910F900FBE91
:1029C0000F901F90189580916F008D7F80936F00FE
:1029D00080918100887F81608093810010923F0503
:1029E00080915E0190911A018F3F39F420913A0550
:1029F000211103C0903881F402C0943069F090E056
:102A0000009741F0EFE9FFE03197F1F700C00000D7
:102A10000197F6CF81E001C080E09091700192FFB4
:102A200002C091E08927882311F0289A08952898F8
:102A300008951F920F920FB60F9211242F933F9378
:102A40004F935F936F937F938F939F93AF93BF93B6
:102A5000EF93FF9380913F05811122C28BB190913A
:102A60004F05907E8F71892B8BB98BB1837E9091AE
:102A70004E05892B8BB980914D0586BD82E085BDC1
:102A800081E080933F057894809161059091620583
:102A9000892B09F0BFC08091630590918E0598172E
:102AA00009F4A4C0E09163052E2F30E087E0E89F91
:102AB000F0011124EC59FA4FF0936205E09361059F
:102AC0008281938190938900809388008081918195
:102AD00090935D0580935C05E48180915E058E177F
:102AE00061F1E0935E0582E1E89FF0011124E15776
:102AF000FA4FF0936005E0935F0584859585A68580
:102B0000B785B695A7959795879580934805909337
:102B10004905A0934A05B0934B05809344059093D3
:102B20004505A0934605B0934705809340059093D3
:102B30004105A0934205B0934305A0915F05B09174
:102B4000600590913E0550968C915097892780930F
:102B50004F0587E0829FF001839FF00D1124EC590F
:102B6000FA4F25814D915D916D917C911397022EC5
:102B700004C076956795579547950A94D2F7409388
:102B80005005509351056093520570935305149668
:102B90004D915D916D917C911797022E04C07695B1
:102BA0006795579547950A94D2F7409354055093EB
:102BB0005505609356057093570518968D919D9114
:102BC0000D90BC91A02D04C0B695A79597958795BB
:102BD0002A95D2F78093580590935905A0935A05EA
:102BE000B0935B0586810E94FF3214C00E94E314FB
:102BF000E0915F05F09160058189882339F010929A
:102C0000B3008091B0008F778093B00084E00E9481
:102C1000C91C46C1809119018130B1F486B180721E
:102C200090910001891781F0109219018CE0E1E088
:102C3000F1E0ADE0B1E001900D928A95E1F780916D
:102C4000390580648093390510924E0540915005F6
:102C50005091510560915205709153058091400546
:102C600090914105A0914205B0914305840F951FB5
:102C7000A61FB71F8093400590934105A09342057E
:102C8000B0934305E0915F05F0916005448555855B
:102C900066857785481759076A077B0768F524E03A
:102CA00020934E054485558566857785841B950B55
:102CB000A60BB70B8093400590934105A093420566
:102CC000B093430520898091010190910201A09168
:102CD0000301B091040125FF04C00197A109B109C6
:102CE00003C00196A11DB11D8093010190930201C3
:102CF000A0930301B09304014091540550915505F0
:102D00006091560570915705809144059091450555
:102D1000A0914605B0914705840F951FA61FB71FC8
:102D20008093440590934505A0934605B0934705CD
:102D30004485558566857785481759076A077B0757
:102D400078F520914E05286020934E0544855585E1
:102D500066857785841B950BA60BB70B809344057E
:102D600090934505A0934605B0934705208980912F
:102D7000050190910601A0910701B091080126FF7D
:102D800004C00197A109B10903C00196A11DB11D9D
:102D90008093050190930601A0930701B093080169
:102DA000409158055091590560915A0570915B0505
:102DB0008091480590914905A0914A05B0914B0535
:102DC000840F951FA61FB71F809348059093490550
:102DD000A0934A05B0934B05448555856685778554
:102DE000481759076A077B0778F520914E0520613F
:102DF00020934E054485558566857785841B950B04
:102E0000A60BB70B8093480590934905A0934A05FC
:102E1000B0934B0520898091090190910A01A091FE
:102E20000B01B0910C0127FF04C00197A109B10962
:102E300003C00196A11DB11D8093090190930A0161
:102E4000A0930B01B0930C0180911A01843039F4E6
:102E50009091200180914E05892380934E058091A9
:102E60005C0590915D05019790935D0580935C05ED
:102E7000892B69F4109262051092610580916305B7
:102E80008F5F80936305863011F4109263059091F3
:102E90003D0580914E05892780934E0510923F0590
:102EA000FF91EF91BF91AF919F918F917F916F9122
:102EB0005F914F913F912F910F900FBE0F901F90F8
:102EC00018958091700182FF02C0289A01C028984D
:102ED00080913D0580934E0580915B01880F845061
:102EE000819580934D0580916F00826080936F0083
:102EF00008953F924F925F926F927F928F929F922E
:102F0000AF92BF92CF92DF92EF92FF920F931F93F7
:102F1000CF93DF93CDB7DEB7A4970FB6F894DEBF9B
:102F20000FBECDBF10913A05112391F181E080933E
:102F30001A0189EA92E00E94B21E812F0E948C1E23
:102F40000E94C11E85EF91E0019739F0EFE9FFE0A3
:102F50003197F1F700C00000F7CF1150123030F078
:102F60008FB7F89410923A058FBF12C083EA92E0AF
:102F70000E94B21E81E992E00E94B21E0E945C2073
:102F800080E10E94BF1C8091390584FFFCCFE8CF0F
:102F900010913905112309F4BEC214FF04C081E069
:102FA00080931B01BBC310FFC0C18CE0E1E0F1E0E6
:102FB000DE01599601900D928A95E1F7BE01675E98
:102FC0007F4FCE010D960E940D1D8CE30E9434327E
:102FD00080911A018830E1F058F4813099F1A8F01D
:102FE000823099F1843009F043C084EF92E03EC012
:102FF000803229F118F4803171F03AC0803441F107
:103000008038B1F58CED92E031C087E093E02EC0BE
:1030100083E093E02BC080911C0187FD10C08DEFF1
:1030200092E00E94B21E80911C0180FF06C080E3E6
:103030001AC082FF17C085FFFACF81E314C089EF61
:1030400092E014C08EEE92E011C088EE92E00EC0C5
:1030500082EE92E00E94B21E80911C0183FFE9CFB4
:1030600083E301C082E30E94343202C00E94B21E98
:1030700080915F01F82FF170BF2E80FD15C0409048
:10308000BB015090BC016090BD017090BE0143EA4D
:10309000842E41E0942E9E012F5F3F4F7901CE0197
:1030A0000D966C0100E02CC080912601882339F335
:1030B00085ED92E03FC0A30192010E94C136F70165
:1030C0006083718382839383B110F2CFF7012081F3
:1030D000318142815381F6016081718182819381C6
:1030E0000E94C036F60160837183828393830F5FF1
:1030F000F4E0EF0EF11C24E0C20ED11C0330B1F05D
:10310000F40161917191819191914F0120853185F7
:10311000428553850E94C136F701608371838283A3
:103120009383023041F2BB2089F2E1CFB110C0CFCE
:103130008EEC92E00E94B21ECE010D960E946F1E90
:1031400080915F0181FF1FC089EC92E00E94B21E56
:1031500090911C058091FB01981710F0815F01C0D0
:103160008150891B0E948C1E8CE20E943432809117
:10317000F9019091F801981710F0805801C0815022
:10318000891B0E948C1E84EC92E00E94B21E8091EA
:103190001A018C7749F060910006709101068091C8
:1031A00002069091030603C060E070E0CB010E942C
:1031B000511E8CE20E9434326091270170912801E7
:1031C0008091290190912A0140E00E94B31D0E9444
:1031D000BA20F82E0E945A1D082F86B1982F90729F
:1031E00080910001E92EE8268F2D802B8E2959F140
:1031F0008FEB92E00E94B21EEE2019F080E50E9453
:103200003432FF2079F0F0FE03C088E50E943432AA
:10321000F1FE03C089E50E943432F2FE03C08AE564
:103220000E943432002379F000FF03C082E50E943F
:10323000343201FF03C088E40E94343202FF03C02D
:1032400083E50E94343280912601882321F0815049
:103250008093260118C080911A018C7711F08DE1BE
:1032600001C089E08093260180912501811103C06E
:1032700081E08093250189EB92E00E94B21ECE018D
:1032800001960E946F1E00912501002321F001503C
:103290000093250142C080911A018C7711F083E1DF
:1032A00001C089E08093250184EB92E00E94B21E68
:1032B000809121010E948C1E8CE20E943432809108
:1032C00022010E948C1E8CE20E94343280912301E4
:1032D0000E948C1E8091B00087FF05C02D9902C00E
:1032E00001E001C002E0439B03C0FF24F39403C04C
:1032F000002399F0F12C80EB92E00E94B21E002393
:1033000039F0013011F483E501C083E40E943432C6
:10331000FF2019F086E40E9434328EE30E9434329A
:103320000E94C11E81E00E94BF1C812F887E09F48B
:1033300069C080911A01982F937009F052C0887269
:10334000A1F080911C01807C81F40E94653082E0B4
:1033500080931E0180911A01803239F417FD05C057
:1033600080911C01806880931C0180911A01811159
:1033700003C091E090931C0116FF07C085FD05C0B6
:1033800090911C01906490931C0113FF05C0807EF6
:1033900019F480E180931A0115FF23C083EA92E0BB
:1033A0000E94B21E8FE492E00E94B21E0E945C2036
:1033B00080911C0187FD10C090911A01903439F45E
:1033C00083FF07C0837E826080931C0102C0903817
:1033D00019F080E480931A0180911C01806280932F
:1033E0001C0117FF0CC080911A01813029F48091D3
:1033F0001C01856080931C0180E880931A0188EE8F
:103400000E94BF1C11FF44C0812F8876F1F5809186
:103410001A01803471F480911C0185FD0AC084FF7B
:1034200003C010921A0105C082FF03C08860809318
:103430001C0180911A01882381F084FF26C090919D
:103440001C0190FF22C0803141F480912401882327
:1034500021F088608093240118C010921E010E9400
:10346000A926892B71F080911C0186FD0AC010925B
:103470001C0188E080931A010E94C8280E946117ED
:1034800004C010921C0110921A0182E00E94BF1C1D
:1034900012FF41C080911A01807D90911C01882308
:1034A000D9F080911D01811117C097FD15C00E94B0
:1034B00065308091FB01809319060E9489308091CC
:1034C0001E0181FF05C090911C01916090931C0129
:1034D000897F80931E011CC097FF0AC010921E01B5
:1034E0000E94B9260E94CF310E94B0340E9422214E
:1034F00080911C0185FF08C08F77816080931C013B
:1035000080E480931A0104C010921C0110921A01E9
:1035100084E00E94BF1C90913B05992309F4ABC045
:103520008FB7F89410923B058FBF4091210190FF17
:1035300002C084E601C0842F91FD865F92FD8A500F
:1035400093FD8F5F94FD8150893C08F088EC8A30B0
:1035500008F48AE03091220195FF02C024E601C000
:10356000232F96FD22E397FD29E1841303C023173F
:1035700009F481C08093210120932201109225013A
:103580001091FB0130901C0589E9D82E96E7E92EB1
:1035900026E9F22E0EE732E3432E131509F457C045
:1035A000812E912C489CC001499C900D1124FC0156
:1035B000E450FE4F5F01CF010E944421562E672E3A
:1035C000782EC92E2D2D3E2D4F2D502F0E94D839EB
:1035D00018164CF42D2D3E2D4F2D502F6D2D7E2D78
:1035E0008F2D902F08C0252D362D472D5C2D652D54
:1035F000762D872D9C2D0E94183AF501668B778BCE
:10360000808F918F489CC001499C900D11249C0192
:1036100024503E4F7901F90182A093A0A4A0B5A047
:10362000A501940166897789808D918D0E94D83992
:1036300018162CF4F701868A978AA08EB18E1F5F28
:10364000103109F410E0D52C73010C2DA6CF8D2D6F
:103650009E2DAF2DB02F8093350590933605A09306
:103660003705B09338050E9465308091FB01809347
:1036700019060E94893090913C05992309F448C0AD
:103680008FB7F89410923C058FBF2091230190FFD3
:1036900002C084E601C0822F91FD865F92FD8A50B0
:1036A00093FD8F5F94FD8150893C08F088EC8A304F
:1036B00008F48AE0821749F020911E0128602093C7
:1036C0001E01809323011092250180911A0195FF1C
:1036D0000DC0803159F420912401211102C022E053
:1036E00003C020FF03C0246020932401907C81F05C
:1036F000882311F0887161F01091880116FF02C0D3
:103700001F7B01C01064812F0E94503210938801EA
:1037100080911A018C7F11F00E94C828A4960FB6E0
:10372000F894DEBF0FBECDBFDF91CF911F910F91F7
:10373000FF90EF90DF90CF90BF90AF909F908F90D1
:103740007F906F905F904F903F9008956F927F921F
:103750008F929F92AF92BF92CF92DF92EF92FF92A1
:103760000F931F93CF93DF93EB018C015B018CE0F0
:10377000A80EB11C89E9682E96E7792E26E9822EDB
:103780003EE7932EC990D990E990F99020E030E07F
:10379000A901C701B6010E94B6378823B9F0A70175
:1037A0009601F80160817181828193810E94C03706
:1037B0006B017C01E894F7F8A7019601B301C401FD
:1037C0000E94B63787FD02C0360147010C5F1F4FCC
:1037D000CA15DB05B9F6B301C401DF91CF911F9182
:1037E0000F91FF90EF90DF90CF90BF90AF909F90A0
:1037F0008F907F906F9008954F925F926F927F921B
:10380000AF92BF92CF92DF92EF92FF920F931F93EE
:10381000CF93DF93EC018C015C018CE0A80EB11C0E
:10382000C12CD12C7601F80141905190619071909A
:103830008F0120E030E0A901C301B2010E94B63738
:10384000882371F0A3019201C301B2010E94183ACA
:103850009B01AC01C701B6010E94C1366B017C011E
:103860000A151B0501F7C701B6010E94B73A2B01E3
:103870003C019B01AC0160E070E080E89FE30E94A6
:10388000C0376B017C019B01AC01688179818A8121
:103890009B810E94183A688379838A839B83A7015E
:1038A00096016C817D818E819F810E94183A6C8384
:1038B0007D838E839F83A7019601688579858A859C
:1038C0009B850E94183A688779878A879B87C301FE
:1038D000B201DF91CF911F910F91FF90EF90DF9098
:1038E000CF90BF90AF907F906F905F904F90089572
:1038F000CF93DF93CFE0D7E08991882319F00E941E
:103900003432FACFDF91CF910895CF93DF9321E541
:10391000829FC0011124EC01DD5F40E550E0BE0153
:103920008FE097E00E946128892B69F410920F07BD
:103930000E94443440E550E06FE077E0CE010E9401
:10394000CA2680E001C081E0DF91CF9108952FB7B2
:10395000F89490913C05892B80933C052FBF0895E6
:103960002FB7F89490913B05892B80933B052FBF8F
:1039700008959FB7F89480933A059FBF08952FB795
:10398000F8949091390580958923809339052FBF4C
:1039900008952FB7F89490913905892B80933905B4
:1039A0002FBF0895AF92BF92CF92DF92EF92FF9216
:1039B0000F931F93CF93DF93EC010FE411E05C01B1
:1039C0008CE0A80EB11CC990D990E990F99020E044
:1039D00030E0A901C701B6010E94D83918168CF051
:1039E000F80121913191419151918F01C701B601A7
:1039F0000E94B63787FD05C0CA15DB0521F780E0B8
:103A000001C081E0DF91CF911F910F91FF90EF9066
:103A1000DF90CF90BF90AF900895AF92BF92CF92BA
:103A2000DF92EF92FF920F931F93CF93DF9300D01B
:103A300000D0CDB7DEB75B012BE2E22E21E0F22E03
:103A40008C016B018CE0C80ED11CF5016191719164
:103A5000819191915F01F7012191319141915191B2
:103A60007F0129833A834B835C830E946A382981D2
:103A70003A814B815C810E94C037F8016193719358
:103A8000819391938F01AC14BD04F9F60F900F90C0
:103A90000F900F90DF91CF911F910F91FF90EF90BA
:103AA000DF90CF90BF90AF9008950E944434109261
:103AB0002601089596B1892F877049F0892F809546
:103AC000817091FF826092FD03C08460089580E060
:103AD00008951F920F920FB60F9211242F933F93C8
:103AE0004F935F936F937F938F939F93AF93BF9306
:103AF000EF93FF930E945A1D882391F080FF03C02B
:103B00000E94B6340DC082FF04C0809139058260E6
:103B100005C081FF05C08091390588608093390513
:103B2000FF91EF91BF91AF919F918F917F916F9195
:103B30005F914F913F912F910F900FBE0F901F906B
:103B40001895109200019091700197FD03C090E2CA
:103B500090930001882331F09091000180E2892741
:103B60008093000108958F929F92AF92BF92CF925F
:103B7000DF92EF92FF920F931F93CF93DF93CDB716
:103B8000DEB72D970FB6F894DEBF0FBECDBF6B0129
:103B90007C01042F20E030E0A9010E94B63787FFA6
:103BA00007C08DE20E943432F7FAF094F7F8F094EF
:103BB000102F123060F020E030E048EC52E4C701F2
:103BC000B6010E94183A6B017C011250F2CF00FF3F
:103BD0000AC020E030E040E251E4C701B6010E9493
:103BE000183A6B017C0120E030E040E05FE3C70160
:103BF000B6010E94C1360E94323810E03AE0832EAE
:103C0000912CA12CB12C611571058105910591F0C4
:103C1000EE24E394F12CEC0EFD1EE10EF11CA50147
:103C200094010E947E36605DF7016083B901CA018C
:103C30001F5FE9CF80E3101748F4E1E0F0E0EC0FFC
:103C4000FD1FE10FF11D80831F5FF5CF101314C01E
:103C500011E0100F80E3FE01E00FF11D81830CC025
:103C6000101303C08EE20E943432FE01E10FF11DF9
:103C700080810E94343211501111F2CF2D960FB66F
:103C8000F894DEBF0FBECDBFDF91CF911F910F9192
:103C9000FF90EF90DF90CF90BF90AF909F908F906C
:103CA00008952091700120FF08C02BE832E441E222
:103CB0005DE30E94183A41E001C040E00C94B31D5E
:103CC0002091700120FF08C02BE832E441E25DE35F
:103CD0000E94183A44E001C043E00C94B31DCF9316
:103CE000DF93EC01688179818A819B810E94601E4B
:103CF0008CE20E9434326C817D818E819F810E9492
:103D0000601E8CE20E943432688579858A859B85A5
:103D1000DF91CF910C94601ECF93DF93843630F007
:103D20006AE00E945E36C0E3C90F03C0C0E08A307B
:103D300030F06AE00E945E36D0E3D90F01C0D0E0D7
:103D4000805D0E943432DD2319F08D2F0E943432C1
:103D5000CC2329F08C2FDF91CF910C943432DF915A
:103D6000CF910895CF93DF93FC018491EF012196C9
:103D7000882321F00E943432FE01F7CFDF91CF91EA
:103D800008958CE093E00C94B21ECF93C82F85E188
:103D900093E00E94B21E8C2F0E948C1ECF910C9437
:103DA000C11E811104C08CE193E00C94B21E0C94EE
:103DB000C51ECF93DF93C0E08C2F0E94851C81111C
:103DC0000EC010920F078EE30E9434320E94781CBE
:103DD0008AE30E94343287E00E94C51E12C080919F
:103DE0000F07882371F00E94FF06D82F8EE30E94F0
:103DF00034320E94781C8AE30E9434328D2F0E9454
:103E0000D11EC13011F0C1E0D7CFDF91CF9108951D
:103E1000CF92DF92EF92FF921F93CF93DF931F9287
:103E2000CDB7DEB7182F6A017B0184E229830E9497
:103E30003432812F0E948C1E8DE30E9434322981FE
:103E4000422FC701B6010E94B31D0F90DF91CF91A1
:103E50001F91FF90EF90DF90CF900C94C11E1F93A5
:103E6000CF93DF931F92CDB7DEB7182F84E269831B
:103E70000E943432812F0E948C1E8DE30E943432C6
:103E80006981862F0E948C1E0F90DF91CF911F9128
:103E90000C94C11EEF92FF920F931F93CF93DF9369
:103EA00060915B0170E080E00E942F1F60915E01D5
:103EB00070E081E00E942F1F60915C0170E082E061
:103EC0000E942F1F60915D0170E083E00E942F1F10
:103ED0006091700162FB662760F970E084E00E94E7
:103EE0002F1F6091700166FB662760F970E085E026
:103EF0000E942F1F80917001082E000C990B692FD2
:103F0000661F6627661F70E086E00E942F1F609183
:103F10005F0170E08AE00E942F1F40916001509184
:103F20006101609162017091630123E08BE00E9466
:103F3000081F409164015091650160916601709184
:103F4000670123E08CE00E94081F6091700161709E
:103F500070E08DE00E942F1F6091700165FB662765
:103F600060F970E084E10E942F1F6091700163FB93
:103F7000662760F970E085E10E942F1F6091700153
:103F80006295617070E086E10E942F1F609171015F
:103F900070E087E10E942F1F4091720150917301E0
:103FA000609174017091750123E088E10E94081FFF
:103FB000409176015091770160917801709179017B
:103FC00023E089E10E94081F60917A0170917B01D2
:103FD0008AE10E942F1F40917C0150917D016091E8
:103FE0007E0170917F0123E08BE10E94081F4091C8
:103FF00068015091690160916A0170916B0120E044
:104000008EE10E94081F40916C0150916D016091FA
:104010006E0170916F0120E08FE10E94081F609196
:1040200070016695617070E080E20E942F1FD4E6F7
:10403000F12C0BE211E083E0E82EED0ECD2F82E0B3
:10404000F81691F0E3E0FE16E9F0F1E0FF1631F02A
:10405000F80140815181628173811AC0F801448561
:1040600055856685778514C020E030E041E655E44B
:10407000F801608D718D828D938D0E94C037AB01E8
:10408000BC0106C0F80144A155A166A177A17058F2
:1040900023E08C2F0E94081F0C5F1F4FCF5FCE11B3
:1040A000CECFD65FF394DC3821F6DF91CF911F910C
:1040B0000F91FF90EF9008958DE50E9434320C949B
:1040C000C11ECF93DF93CDB7DEB72C970FB6F89410
:1040D000DEBF0FBECDBF8FE093E00E94B21E6DE049
:1040E00071E0CE0101960E940D1DCE0101960E9445
:1040F0006F1E8AE30E94343280911F010E948C1E41
:104100000E945C202C960FB6F894DEBF0FBECDBF88
:10411000DF91CF9108951F920F920FB60F92112445
:104120002F933F934F935F936F937F938F939F93BF
:10413000AF93BF93EF93FF9380911A01813049F0C1
:1041400080913A05811105C00E94B63481E00E9439
:10415000B91CFF91EF91BF91AF919F918F917F918A
:104160006F915F914F913F912F910F900FBE0F90E4
:104170001F90189593B196718091700186FD02C0D1
:1041800086E19827992349F091FB882780F992FDD1
:104190008260907119F08460089580E00895EBE6E4
:1041A000F0E08081897E8083E8E6F0E080818E7F88
:1041B0008083089584B1897E84B985B1866185B98B
:1041C0008091700183FF0BC080916B0086618093AA
:1041D0006B008091680081608093680008950C9462
:1041E000CF200F931F93CF93C42F20E030E040EAFD
:1041F00051E40E94183A0E949F370E9439388B017F
:1042000001151105D9F080911B01811117C0C11151
:1042100003C00E94383306C00E94791780911C01A8
:1042200081FD0CC02FEF80E792E02150804090404C
:10423000E1F700C0000001501109E2CFCF911F91BA
:104240000F910895EDE1F5E0A1E0B1E04D915D91B0
:104250006D917C911397408351836283738314968D
:104260004D915D916D917C91179744835583668341
:10427000778318968D919D910D90BC91A02D80878C
:104280009187A287B3870895BF92CF92DF92EF9272
:10429000FF920F931F93CF93DF937C01FC0102A544
:1042A00013A5D4A5C5A5818980FF18C060912201FE
:1042B00070E080E090E00E946A382AE037ED43E247
:1042C0005CE30E94183A9B01AC01B8018D2F9C2F32
:1042D0000E94183A8B01D82FC92F2DC082FD17C01C
:1042E0006091210170E080E090E00E946A382AE04D
:1042F00037ED43E25CE30E94183A9B01AC01B80140
:104300008D2F9C2F0E94183A8B01D82FC92FF701AF
:10431000B6A0C7A0D0A4F1A42B2D3C2D4D2D5F2D10
:10432000B8018D2F9C2F0E94D839181624F40B2D1C
:104330001C2DDD2DCF2D20E030E040E85FE3B801FB
:104340008D2F9C2F0E94D839181624F000E010E021
:10435000D0E8CFE3B8018D2F9C2FDF91CF911F9133
:104360000F91FF90EF90DF90CF90BF9008952F9224
:104370003F924F925F926F927F928F929F92AF92F5
:10438000BF92CF92DF92EF92FF920F931F93CF9342
:10439000DF93CDB7DEB7CA54D1090FB6F894DEBFAC
:1043A0000FBECDBF4B01A0901C052A2C312C22E35F
:1043B000229DA001239D500D1124BA0164507E4F0F
:1043C0007AAF69AFFB0111922A95E9F7F4012085D4
:1043D000FB01218BF4014481558166817781E9AD30
:1043E000FAAD46A757A760AB71AB21FF42C02CE0E6
:1043F000E1E0F1E0DE01599601900D922A95E1F796
:104400008BAB9CAB2BE231E021963FAF2EAF2197D7
:10441000BE016B5D7F4F7EAF6DAFCE01499698AF09
:104420008FABFE013D96FCAFEBAF62E3A69E900121
:10443000112427963FAF2EAF2797FEABEDAB00E0E0
:1044400010E0B12C82E3829D9001839D300D1124F8
:10445000C90184509E4FFC013C962396FFAFEEAFFE
:1044600023979C01205F3F4F25963FAF2EAF2597A6
:1044700043C02CE0EDE1F5E0BDCF2796EEADFFADFA
:104480002797E00FF11FE450FE4FC082D182E282F5
:10449000F3822396EEADFFAD2397208131814281D7
:1044A0005381C216D306E406F50610F469017A01B9
:1044B0002396EEADFFAD2397C082D182E282F382D4
:1044C0000E946A38A30192010E94C037EDA9FEA99B
:1044D0006193719381939193FEABEDAB20E030E05B
:1044E000A9010E94B63787FD41C0B3940C5F1F4FEE
:1044F0000C30110509F44CC0EBA9FCA96191719134
:1045000081919191FCABEBAB2196EEADFFAD219784
:1045100041905190619071902196FFAFEEAF21973D
:10452000A30192010E94183A0E94E539EDADFEAD5B
:104530006193719381939193FEAFEDAFEFA9F8ADC5
:10454000C190D190E190F190F8AFEFAB6C197D097B
:104550008E099F096B017C0197FF8FCFCC24DD244E
:104560007601C61AD70AE80AF90A87CFBB2029F0D4
:10457000F1E0BF1621F090E803C090E201C090E4A2
:104580002596EEADFFAD25978081892B8083ADCF39
:10459000CD28CE28CF2809F4A3C1CE010D960E94C4
:1045A000FC1B9B01AC0182E3829D8001839D100D69
:1045B000112404501E4FF801268F378F40A351A3BA
:1045C000BE01635F7F4F83E491E028962FAF289769
:1045D00029963FAF29972A964FAF2A972B965FAF20
:1045E0002B970E94A61BF801628F738F848F958F83
:1045F000BE01635F7F4F87E391E00E94A61BF80135
:1046000066A377A380A791A7F18828962FAD289756
:1046100029963FAD29972A964FAD2A972B965FADE5
:104620002B97F0FC09C0F401608171818281938134
:10463000F3FC0E94183AF80162A773A784A795A714
:104640008091FB01A81611F0F1FE0DC082E3829D5E
:10465000F001839DF00D1124E450FE4F128A138A5D
:10466000148A158A54C029E235E03CAB2BAB8E018D
:104670000F5F1F4FBE01675E7F4F7AAB69ABC12CE6
:10468000D12C76010DAB1FABEBA9FCA981909190C9
:10469000A190B190FCABEBABEBADFCAD4190519078
:1046A00061907190FCAFEBAFA3019201C501B40121
:1046B0000E94183A9B01AC01C701B6010E94C036A6
:1046C0006B017C01A5019401C301B2010E94C036B7
:1046D000F80161937193819391938F012BAD3CAD60
:1046E00069A97AA92617370779F62FEE3FEF4FE72A
:1046F0005FE3C701B6010E94D83918166CF482E353
:10470000829DF001839DF00D1124E450FE4F12A212
:1047100013A214A215A271C02FEE3FEF4FE75FEB7B
:10472000C701B6010E94B63787FF11C082E3829DA0
:10473000F001839DF00D1124E450FE4F89E996E7C6
:10474000A6E9BEE782A393A3A4A3B5A356C08DA9EF
:104750009FA90E94FC1B6DA97FA983E491E00E94A0
:10476000A61B4B015C01A701960160E070E080E8A8
:104770009FE30E94C03620E030E040E05FE30E940B
:10478000183A0E94B73A6B017C0120916001309188
:1047900061014091620150916301C501B4010E9421
:1047A000183AA70196010E94183A4B015C01A70133
:1047B000960160E070E080E89FE30E94C0369B01B4
:1047C000AC01C501B4010E94C0376B017C0120E03F
:1047D00030E0A9010E94B63787FF03C0C12CD12C5D
:1047E000760182E3829DF001839DF00D1124E45057
:1047F000FE4FC2A2D3A2E4A2F5A282E3829D800171
:10480000839D100D112404501E4FF801818981FDF4
:1048100069C089AD9AAD0E9444216B017C018090F2
:10482000350590903605A0903705B0903805A50164
:1048300094010E94D83918162CF4A5019401C501E1
:10484000B40104C0A7019601C701B6010E94183A3D
:10485000F801668B778B808F918F82E3829D800138
:10486000839D100D112404501E4FF80182A093A0C7
:10487000A4A0B5A0A501940166897789808D918D4A
:104880000E94D83918162CF4F801868A978AA08ECF
:10489000B18EC0923505D0923605E0923705F09280
:1048A00038058CE0FE013D96A9E2B5E001900D923D
:1048B0008A95E1F78CE0FE01B596ADE1B5E0019097
:1048C0000D928A95E1F78091FA0180931C058F5F24
:1048D000803109F480E08093FA010E94893002C09F
:1048E00080E001C081E0C65BDF4F0FB6F894DEBF09
:1048F0000FBECDBFDF91CF911F910F91FF90EF9031
:10490000DF90CF90BF90AF909F908F907F906F90EF
:104910005F904F903F902F9008952F923F924F922B
:104920005F926F927F928F929F92AF92BF92CF923F
:10493000DF92EF92FF920F931F93CF93DF93CDB748
:10494000DEB7A1970FB6F894DEBF0FBECDBF909132
:104950001B019111C3C18D8F3E012DE0620E711CB0
:1049600089E0D3011D928A95E9F786E08D8B2FE4CB
:10497000A22E21E0B22EFE0176964F0100E010E05B
:10498000C12CD12C76013D8D232F30E03C8F2B8F15
:10499000902F0115110521F0013021F080E103C0B5
:1049A00084E001C088E0D4018D934D01EB8DFC8D36
:1049B00002C0F595E7959A95E2F7E0FF17C020E071
:1049C00030E040EC5FEBD5016D917D918D919C9134
:1049D0000E94183A1B012C019B01AC01C701B601D2
:1049E0000E94D839181614F0610172010F5F1F4F31
:1049F000B4E0AB0EB11C0330110551F620907601E6
:104A000030907701409078015090790194E0A92E80
:104A1000BB24B39461E071E0CE0101960E940D1DAC
:104A200080917101882E912CFE01319621E031E0B8
:104A30003A8F298F890120E030E060E070E0D701F3
:104A4000C601B0588E8F9F8FA8A3B9A34B8D5C8DE4
:104A5000022E02C0559547950A94E2F740FF2BC0FD
:104A60006F5FD8011D921D921D921C921397A40195
:104A7000022E02C0559547950A94E2F740FF03C005
:104A8000BB2019F007C0BB2029F0C082D182E2828E
:104A9000F38208C08E8D9F8DA8A1B9A180839183D8
:104AA000A283B38346E150E04C0F5D1F420F531FBA
:104AB000DA014C91742B2F5F3F4F34960C5F1F4FE0
:104AC0002330310519F6172F70E080E090E00E9446
:104AD00068380E94B73A9B01AC0110932001C201D3
:104AE000B1010E94183A6D877E878F87988BB3013A
:104AF000CE0101960E94B721B4E0B0931E010E943E
:104B0000C8280E946117BB20E9F00E94BA20FE016C
:104B1000769620E030E090E06191462F412359F0F5
:104B2000AC01022E02C0559547950A94E2F740FF6A
:104B300002C0609516232F5F3F4F2330310561F788
:104B4000109320010E94C82880913905847339F19F
:104B50001091390514FF03C086E00E94B91C15FFAF
:104B600003C087E00E94B91CB11007C00E94BA20A0
:104B7000ED8D8E2339F088E003C012FF03C089E079
:104B80000E94B91C80913A05882329F00E94B6340E
:104B90000E943833A3C084E00E94BF1C04C0812F50
:104BA0008C7109F0B0CF0E94CF3100917A01109141
:104BB0007B010115110549F08FE99FE00197F1F79D
:104BC00000C0000001501109F4CF91E0B926C9F0EE
:104BD00020E030E040EA50E460917C0170917D017A
:104BE00080917E0190917F010E94183A6B017C01B7
:104BF00020907201309073014090740150907501C3
:104C000010C0C0907C01D0907D01E0907E01F090BA
:104C10007F0120907601309077014090780150908C
:104C20007901AA94A110F6CEC0907101D12C809088
:104C30007C0190907D01A0907E01B0907F012401C5
:104C4000350177FA709477F870948BE2E82E81E062
:104C5000F82E8B8D9C8D002E02C0959587950A9419
:104C6000E2F780FF2AC0C601002E02C09595879505
:104C70000A94E2F7D70180FF10C094962D913D91E0
:104C80004D915C919797C501B4010E94C136F7011F
:104C9000208131814281538106C02D913D914D91FA
:104CA0005C91C301B2010E94183A0E94E539E98D76
:104CB000FA8D60837183828393830F5F1F4F298DE9
:104CC0003A8D2C5F3F4F3A8F298F34E0E30EF11C71
:104CD0000330110509F0BDCF10921E01A1960FB649
:104CE000F894DEBF0FBECDBFDF91CF911F910F9122
:104CF000FF90EF90DF90CF90BF90AF909F908F90FC
:104D00007F906F905F904F903F902F900895F89410
:104D1000F999FECF92BD81BD81E08FBB80B586271A
:104D2000482F082E000C550B262F30E02423352366
:104D3000232B39F06F3F19F060BD84E006C084E199
:104D400004C0882321F060BD84E28FBBF99A789477
:104D500008958091FB0190911C05981739F022E38A
:104D6000829FC001112484509E4F089580E090E0FE
:104D700008958CE1EDE1F5E0DF011D928A95E9F7F8
:104D80001092FB0110921C0581E08093FA011092B1
:104D9000190608958F929F92AF92BF92CF92DF92A1
:104DA000EF92FF920F931F93CF937C014A016B0107
:104DB000C40ED51E8B01C0E05C01A61AB70AC8015B
:104DC0008A0D9B1D0C151D0599F0C11108C02C2FD3
:104DD000CC0F330B232F221F2227221F01C021E0DB
:104DE000F80161918F01C22FC60F0E948726E7CF7D
:104DF0006C2FC701880D991DCF911F910F91FF90C6
:104E0000EF90DF90CF90BF90AF909F908F900C94D9
:104E100087266AE080E090E00E94872645E550E022
:104E20006BE271E081E090E00C94CA26CF93DF93AF
:104E300000D01F92CDB7DEB76A837B8389830E943F
:104E4000443489812DE0829FC00111244CE050E060
:104E50006A817B819E5F0F900F900F90DF91CF91C1
:104E60000C94CA26EF92FF920F931F93CF93DF9378
:104E7000CDB7DEB72C970FB6F894DEBF0FBECDBF0F
:104E8000182F80FFD5C08AE080935B0189E1809371
:104E90005E0110925C0110925D0181E080935F01E0
:104EA0008AE097EDA3E2BCE38093600190936101F7
:104EB000A0936201B09363018FE692E1A3E0BBE3AC
:104EC0008093640190936501A0936601B09367019C
:104ED00080E090E0AAE7B4E48093680190936901D0
:104EE000A0936A01B0936B0110926C0110926D0156
:104EF00010926E0110926F011092710180E090E0AB
:104F0000A8ECB1E48093720190937301A0937401B3
:104F1000B093750180E090E0AAEFB3E4809376014E
:104F200090937701A0937801B09379012AEF30E054
:104F300030937B0120937A0140E050E060E87FE30A
:104F400040937C0150937D0160937E0170937F01BB
:104F50001092700140E050E06AE773E440932B0147
:104F600050932C0160932D0170932E0140932F01DB
:104F700050933001609331017093320140933301BB
:104F8000509334016093350170933601809337015B
:104F900090933801A0933901B0933A0180933B017B
:104FA00090933C01A0933D01B0933E0180933F015B
:104FB00090934001A0934101B093420180E090EAB8
:104FC000ACE0B7E48093430190934401A093450182
:104FD000B09346018093470190934801A093490103
:104FE000B0934A0180934B0190934C01A0934D01E3
:104FF000B0934E0180E090E0A8E4B3EC80934F01C1
:1050000090935001A0935101B093520180935301AA
:1050100090935401A0935501B0935601809357018A
:1050200090935801A0935901B0935A010E94092707
:1050300011FF10C0CE0101967C018CE0F7011192A6
:105040008A95E9F700E0B701802F0E9416270F5FCD
:105050000830C9F712FF14C060E080E093E00E94BE
:10506000872660E081E093E00E94872660E081E58A
:1050700093E00E94872660E082E593E00E94872605
:1050800013FF0AC060E08EEA93E00E94872660E08A
:105090008FEA93E00E9487262C960FB6F894DEBF25
:1050A0000FBECDBFDF91CF911F910F91FF90EF9079
:1050B0000895F999FECF92BD81BD81E08FBB80B587
:1050C00008958F929F92AF92BF92CF92DF92EF920C
:1050D000FF920F931F93CF934B017A016C01C40E83
:1050E000D51E8C01C0E05B01A81AB90AC501800F6A
:1050F000911F0C151D0599F00E945928C11108C077
:105100002C2FCC0F330B232F221F2227221F01C04D
:1051100021E0C22FC80FF80181938F01E7CFC401AE
:105120008E0D9F1D0E94592821E030E0C81711F014
:1051300020E030E0C901CF911F910F91FF90EF90D7
:10514000DF90CF90BF90AF909F908F9008951F9366
:10515000CF93DF93182FEB018DE0189FB00111243E
:105160007E5F4CE050E0CE010E946128892B59F40B
:105170008CE0FE0111928A95E9F7BE01812F0E9411
:10518000162780E001C081E0DF91CF911F91089543
:105190002F923F924F925F926F927F928F929F9247
:1051A000AF92BF92CF92DF92EF92FF920F931F9335
:1051B000CF93DF93CDB7DEB7EE970FB6F894DEBF8F
:1051C0000FBECDBF80911E0180FD66C79091630523
:1051D00080911A06981709F45FC780911D06909177
:1051E0001E06892B09F03BC310911E0112FF09C056
:1051F00080911C0522E3289FC001112484509E4FFA
:1052000002C00E94A92690931E0680931D0620903E
:105210001D0630901E062114310409F43DC700918B
:10522000EA05902F917000FF03C01092EA05FEC0BE
:105230008091E9058F5F853009F0982F9093E905FB
:10524000E92EF12C32E13E9DF0013F9DF00D11243D
:10525000E157FA4FF0931C06E0931B06D1015096DC
:105260008C915097808B4D915D916D917C91DB017C
:10527000CA0123E0880F991FAA1FBB1F2A95D1F7E7
:1052800080839183A283B383D10114964D915D9164
:105290006D917C911797DB01CA0133E0880F991F4C
:1052A000AA1FBB1F3A95D1F784839583A683B78342
:1052B000D10118964D915D916D917C911B97DB0109
:1052C000CA0143E0880F991FAA1FBB1F4A95D1F757
:1052D00080879187A287B387D1011C964D915D91FC
:1052E0006D917C911F97DB01CA0153E0880F991FD4
:1052F000AA1FBB1F5A95D1F784879587A687B787C2
:10530000F10164857585868597850E94683860936C
:10531000EF057093F0058093F1059093F205D101AC
:105320005E962D913D914D915C9191970E94C03771
:105330009B01AC016093F3057093F4058093F50530
:105340009093F60560E070E080EA9FE30E94C0372A
:105350006093F7057093F8058093F9059093FA052B
:105360001092EB051092EC051092ED051092EE05EF
:1053700011FD02C003FF1DC060910806709109066F
:1053800080910A0690910B066093000670930106C7
:1053900080930206909303069B01AC010E94183A89
:1053A000F101628B738B848B958B077F0093EA05E9
:1053B00011C0D10152966D917D918D919C9155971F
:1053C0000E94B73A6093000670930106809302062C
:1053D00090930306B2E1BE9DC001BF9D900D1124C4
:1053E000FC01E157FA4F7F01118A8091700181FF22
:1053F0001DC0D10151968C91519785FF17C09A9687
:105400002D913D914D915C919D9760E070E080E819
:105410009FE30E94C0376093140670931506809333
:1054200016069093170621E0F701218B1092FC05D8
:105430001092FD051092FE051092FF05D1015A96BB
:105440008D919D910D90BC91A02D89839A83AB8302
:10545000BC839C01AD0160E070E080E09FE30E94AE
:10546000C0374B015C01F101468C578C60A071A0E4
:1054700011FF4BC0F2E0F093FB05D1015296CD90A5
:10548000DD90ED90FC905597A70196010E94183A87
:105490009B01AC01C301B2010E94C0364B015C010B
:1054A00020E030E0A9010E94B63787FF1DC02981A6
:1054B0003A814B815C81CA01B9010E94C136A301C6
:1054C00092010E94183A9B01AC01C701B6010E94EB
:1054D000C0360E94B73A609308067093090680931D
:1054E0000A0690930B06B8C18092FC059092FD05C8
:1054F000A092FE05B092FF051092080610920906D0
:1055000010920A0610920B06A7C11092FB0540925A
:105510000C0650920D0660920E0670920F0612FF56
:105520000CC0109208061092090610920A061092FA
:105530000B06C12CD12C760124C0E091FB01EF5F5A
:10554000E03109F4E0E080911C05E81759F0B2E37E
:10555000BE9FF0011124E450FE4FC288D388E48836
:10556000F58803C0C12CD12C7601C701B6010E9479
:10557000B73A609308067093090680930A069093E1
:105580000B06C1010E944421698B7A8B8B8B9C8B0B
:105590009B01AC010E94183A6D837E838F839887AC
:1055A000D10152962D913D914D915C91559729874E
:1055B0003A874B875C879B01AC0169857A858B852F
:1055C0009C850E94D83918160CF070C02D813E8140
:1055D0004F81588569857A858B859C850E94C03668
:1055E0009B01AC01C501B4010E94183A9B01AC01BA
:1055F000C301B2010E94C03660930C0670930D0681
:1056000080930E0690930F0620E030E0A9010E94DF
:10561000B63718163CF1B2E0B093FB0529813A8108
:105620004B815C81CA01B9010E94C136A30192017C
:105630000E94183A9B01AC0169857A858B859C850F
:105640000E94C0360E94B73A60930806709309061C
:1056500080930A0690930B068091EA0588608093F8
:10566000EA05FAC0A70196016D817E818F81988538
:105670000E94C0369B01AC01C501B4010E94183ADA
:105680006093100670931106809312069093130690
:1056900029893A894B895C89209304063093050651
:1056A000409306065093070633E0BBC0A70196015E
:1056B00069857A858B859C850E94C0369B01AC01EB
:1056C000C501B4010E94183A9B01AC01C301B201AB
:1056D0000E94C13620E030E040E05FE30E94183ACB
:1056E0006D877E878F87988B20E030E0A9010E942C
:1056F000D83918160CF098C0A30192016D857E85EB
:105700008F8598890E94B63787FF8AC0A7019601C6
:105710006D817E818F8198850E94C0369B01AC018E
:10572000C501B4010E94183A6093100670931106E7
:1057300080931206909313062D853E854F855889D8
:105740000E94B63787FF3BC089899A89AB89BC899B
:105750008093040690930506A0930606B09307066F
:105760002D813E814F81588569857A858B859C8501
:105770000E94B637811104C091E09093FB056CC084
:1057800029853A854B855C856D817E818F819885E1
:105790000E94C0369B01AC01C501B4010E94183AB9
:1057A0009B01AC01C301B2010E94C03660930C069C
:1057B00070930D0680930E0690930F064DC02D85B5
:1057C0003E854F85588920930C0630930D064093F3
:1057D0000E0650930F062093100630931106409347
:1057E00012065093130629813A814B815C81CA01CC
:1057F000B9010E94C1362D853E854F8558890E948A
:10580000183AA70196010E94C1360E94B73A6093E8
:1058100004067093050680930606909307061CC045
:1058200032E03093FB0518C010920C0610920D0662
:1058300010920E0610920F068091080690910906AC
:10584000A0910A06B0910B0680930406909305067A
:10585000A0930606B0930706186010931E0180916E
:105860008E05482F50E05A87498787E0849FF001D2
:10587000859FF00D1124EC59FA4F8091E90584833E
:10588000A0911D06B0911E06BEAFADAF5E96BC9155
:10589000BEA3EDADFEADF78DFFA3ADADBEAD909651
:1058A000BC91B8A7EDADFEADF1A1F9A72091F70528
:1058B0003091F8054091F9055091FA056EA17FA14C
:1058C0008B2F9F2F0E94C0366AAB7BAB8CAB9DABFE
:1058D00020E030E0A9010E94B63787FF04C01AAA71
:1058E0001BAA1CAA1DAA20910C062D8330910D061F
:1058F0003D8740910E06498B50910F065D8B80913C
:1059000004068A8F909105069B8FA0910606AC8FA6
:10591000B0910706BD8FE0911006EAA7F09111063D
:10592000FBA7209112062CA7309113063DA74091AA
:10593000FB054983609000067090010640900206C6
:10594000509003065091FC055EA78091FD058FA73E
:105950009091FE0598ABA091FF05A9ABB091080608
:10596000BEABE0910906EFABF0910A06F8AF2091CB
:105970000B0629AF2EA03FA008A519A58EE3C82EBF
:1059800083ECD82E8EE2E82E89E3F82E1E8A1F8A39
:10599000188E198ECE8EDF8EE8A2F9A299819130F1
:1059A00009F4E7C008F474C0ADADBEAD5A962D91B0
:1059B0003D914D915C915D97933009F009C1C7010C
:1059C000B6010E94183A4B015C0120E030E040E053
:1059D0005FE30E94183A9B01AC01B301C2010E942F
:1059E000C0369B01AC01C701B6010E94183A6AA3F8
:1059F0007BA38CA39DA39B01AC01B101C8010E94B4
:105A0000C0361B018C012D813D8549895D890E942D
:105A1000B63787FD0BC020E030E0A9016AA17BA169
:105A20008CA19DA10E94B63718165CF12D813D8591
:105A300049895D896EA17FA188A599A50E94C0367C
:105A40009B01AC010E94C1366B017C012A8D3B8D0C
:105A50004C8D5D8DB301C2010E94C1369B01AC012A
:105A6000C701B6010E94C0376B017C016A8C7B8C38
:105A70004C8C5D8C2D803D8409891D89B1E0B983F2
:105A800011C1A5019401B301C2010E94C0366EC0CC
:105A9000EDADFEAD228D338D448D558DC701B60120
:105AA0000E94183A4B015C0120E030E040E05FE3E7
:105AB0000E94183A9B01AC01B301C2010E94C13699
:105AC0009B01AC01C701B6010E94183A9B01AC01D1
:105AD000B101C8010E94C0361B018C012D813D859A
