:100000000C9491010C94A3010C94A3010C949C20DA
:100010000C947A1D0C94A3010C94A3010C94A301DD
:100020000C94A3010C94A3010C94A3010C942A1525
:100030000C94A3010C94A3010C94A3010C94A301B0
:100040000C94DE140C94A3010C94EB340C941B322E
:100050000C94A3010C94A3010C94A3010C94A30190
:100060000C94A3010C94A30109060F0612061506B1
:100070001A0622062A06C506C506C50637063A062A
:1000800043064C06C506C506C506C506C506C50613
:10009000580662066E067606790682068B0691067B
:1000A000C506C5069A06A306AE06E00882148214A9
:1000B000EA08F708040911098214150982142309B2
:1000C00082142D09370941098214821482145109BE
:1000D0005E096B09213523355C355C355C355C3553
:1000E0005C355C355C355C355C355C3529352B35EC
:1000F0002D352F3531353335353537355C353B3595
:100100003D353F354135433545355C354735084A42
:10011000D73B3BCE016E84BCBFFDC12F3D6C74311B
:100120009ABD56833DDA3D00C77F11BED9E4BB4C72
:100130003E916BAAAABE000000803F05A84CCDB23C
:10014000D44EB93836A9020C50B9918688083CA61D
:10015000AAAA2ABE000000803F000D0A4772626C06
:1001600020312E3166205B27242720666F7220689D
:10017000656C705D0D0A00244E005B4F50543A00D0
:100180005B5645523A312E31662E3230313730319E
:1001900033313A005B544C4F3A005B4739323A00F6
:1001A0003330003238005B4700204700204D0020EC
:1001B000530020460020540033382E005B47433A5A
:1001C00047005B484C503A24242024232024472015
:1001D000244920244E2024783D76616C20244E78DA
:1001E0003D6C696E6520244A3D6C696E6520245320
:1001F0004C50202443202458202448207E202120B5
:100200003F206374726C2D785D0D0A00536C656538
:1002100070696E6700526573746F72696E672073E0
:1002200070696E646C6500526573746F72696E6795
:100230002064656661756C74730050676D20456E4F
:100240006400436865636B204C696D697473004397
:100250006865636B20446F6F720044697361626C00
:10026000656400456E61626C656400436175746924
:100270006F6E3A20556E6C6F636B6564002724487F
:10028000277C2724582720746F20756E6C6F636B52
:1002900000526573657420746F20636F6E74696EAD
:1002A0007565005B4D53473A00414C41524D3A0051
:1002B0007C413A007C4F763A007C57434F3A007CB1
:1002C000506E3A007C46533A007C42663A007C57B6
:1002D000506F733A007C4D506F733A00536C6565F4
:1002E0007000446F6F723A00436865636B00416C45
:1002F00061726D00486F6D65004A6F6700486F6CF2
:10030000643A0052756E0049646C65000D0A005B2A
:100310005052423A006572726F723A006F6B0D0A6A
:10032000000011241FBECFEFD8E0DEBFCDBF27E015
:10033000A0E0B1E001C01D92A136B207E1F70E9432
:10034000A5010C943F3B0C940000CF93DF93CDB7F5
:10035000DEB762970FB6F894DEBF0FBECDBF8091B7
:10036000C00082608093C0001092C50080E180933D
:10037000C4008091C10088698093C10080E090E052
:100380000E946A288A3009F03DC545E550E061E0E9
:1003900070E08BE291E00E947228892B09F432C54B
:1003A0008AB18C618AB9209A8AB1806E8AB98091AB
:1003B00081008F7E8093810080918100886080938E
:1003C0008100809180008C7F8093800080918000EC
:1003D0008F708093800080916E00887F80936E0084
:1003E00014BC15BC80916E00816080936E0087B153
:1003F000887F87B988B1876088B980916C008760F1
:1004000080936C00809168008260809368008CE02B
:10041000E1E0F1E0DF011D928A95E9F7789410920E
:100420001A018091700184FF03C081E080931A015A
:10043000ADE0CA2EA1E0DA2EB2E0EB2E80911A01D7
:1004400091E1EAE1F1E011929A95E9F780931A01BE
:1004500084E68093210180932201809323018CE024
:10046000D6011D928A95E9F71092190110923B0569
:1004700010923C0510923D0510923E058091FA01C4
:100480008093FB0180E4E0E8F1E011928A95E9F7BE
:1004900064EA71E080E00E94B828811103C087E01F
:1004A0000E94D61E0E948E343B9A43980E94EB20F5
:1004B0003D98459A80E00E94B21D0E94CA260E9483
:1004C000E0310E9433210E94C1348AE591E00E940C
:1004D000C31E8091700183FF11C00E94CB2088232E
:1004E00069F081E080931A0183EA92E00E94C31EC2
:1004F00082E492E00E94C31E0E946D2080911A0146
:100500008178A1F083EA92E00E94C31E8DE792E019
:100510000E94C31E0E946D2081E080931A0100E0BA
:1005200010E0E3E02E2EF4E03F2E29C010921A01D5
:100530000E94EA1EF4CFE92FF0E0EF5DF94F8081D1
:100540009F5F913809F490E09093FB018F3FE9F0B1
:100550008A3021F50E94493380911B0181116ECFB1
:10056000E02FF0E0EF5EF84F1082F12FF170FF2ED8
:1005700010FF18C08BE00E94D61E00E010E09091A2
:10058000FB018091FA018913D6CF0E9413320E9499
:10059000493380911B01882391F350CF8D3009F0AE
:1005A00009C4D8CF80911107882309F400C484328C
:1005B00009F0F5C321E0298B80911207833409F1FA
:1005C00034F4882361F0843209F006C11AC08A34F9
:1005D00059F08835B1F0873409F0FEC012C082ECC2
:1005E00091E00E94C31ED9C380911A018F7D09F04A
:1005F000C4C3809113078D3309F0C7C30E940B0752
:10060000BFC3909113079111C0C3833409F4B2C0E2
:100610001CF4843239F0C1C3873469F0883509F499
:10062000C9C0BBC380911A018871F82E09F0A5C317
:100630000E945B1FB2C38CEB91E00E94C31E8091AD
:1006400080018C3838F088EB91E00E94C31E8091C5
:1006500080018A580E949D1E89EA91E00E94C31E73
:10066000809186018A5C0E949D1E89EA91E00E9429
:10067000C31E809184018F5E0E949D1E89EA91E0D5
:100680000E94C31E8091820195E1981B892F0E94D0
:100690009D1E89EA91E00E94C31E80918301865AC3
:1006A0000E949D1E89EA91E00E94C31E80918101F3
:1006B000AEE5A81B8A2F0E949D1E8091870188238A
:1006C00099F08CEA91E00E94C31E809187018330EB
:1006D00029F08E3139F0823039F404C080E30E9471
:1006E000453202C00E949D1E8CEA91E00E94C31E0A
:1006F00080918901803131F0803231F0811107C061
:1007000085E303C083E301C084E30E9445328CEAA1
:1007100091E00E94C31E80918801882311F088E334
:1007200001C089E30E94453285EB91E00E94C31E1F
:10073000809193010E949D1E82EB91E00E94C31E56
:1007400060918F017091900180919101909192013F
:100750000E94621E8FEA91E00E94C31E60918B018D
:1007600070918C0180918D0190918E0140E00E94EA
:10077000C41D0EC080911A01823069F40E94C734F2
:1007800083EA92E00E94C31E8AE592E00E94C31EA3
:100790000E946D2002C38111F0C2E0921A0183EA27
:1007A00092E00E94C31E83E692E00E94C31E0E9454
:1007B0006D203BC080911A01813009F0EEC283EABE
:1007C00092E00E94C31E8BE692E00E94C31E0E942C
:1007D0006D2010921A01E1C290911A01923008F036
:1007E000CCC2893409F49FC034F4833271F0883468
:1007F00009F45AC040C1823509F4E7C0833509F4D1
:1008000080C08E3409F037C110C180911307811167
:10081000BCC210E0BE016F5F7F4F812F0E94B828DD
:10082000811105C087E00E94D61EF12CB6C286EA6F
:1008300091E00E94C31E163029F0173041F480EA7F
:1008400091E002C083EA91E00E94C31E04C086E3E7
:10085000810F0E949D1E8AE30E944532CE010196BF
:100860000E94801E0E946D201F5F183099F68AE951
:1008700091E00E94C31E80EB91E00E94801E0E94C6
:100880006D2084E991E00E94C31E6091BC017091CB
:10089000BD018091BE019091BF010E94711E0E9416
:1008A0006D200E94722079C28091700184FF62C223
:1008B00030921A0180911307811167C20E94E020D3
:1008C00084E00E949E2483E00E949E240E9449337B
:1008D00080911B01811106C00E94C1340E94332106
:1008E0000E94EB2080911B01811157C210921A01C6
:1008F0000E94F4148091130781114FC20E94EA1ED6
:1009000094CF809113078C3409F03FC28091140773
:10091000803509F03AC280911507811136C280E80E
:100920000E94DA1C3AC2E98A80911307811130C013
:1009300040E550E06EEA73E081E197E00E947228A2
:10094000892B51F41092110740E550E061E177E006
:100950008EEA93E00E94DB2680E891E00E94C31EAD
:100960000E94891C0E946D208AE791E00E94C31EAC
:1009700086E50E9445328CE20E9445328FE00E945B
:100980009D1E8CE20E94453280E80E949D1E00CF91
:10099000298A8D3309F0F9C183E0282F30E0F9016D
:1009A000EF5EF84F9081D901A25FB84F9C938F5FA3
:1009B00090819111F2CF898B40E550E061E177E0C1
:1009C0008EEA93E00E94DB26E8C18091130783350D
:1009D00009F0DBC180911407843509F0D6C18091FC
:1009E00015078D3309F0D1C1809117078111CDC151
:1009F00080911607843239F08A3239F0833209F057
:100A0000C4C182E003C081E001C08FEF0E94432790
:100A100083EA92E00E94C31E87E292E00E94C31E16
:100A20000E946D200E94C734B8C1E98A80911307E3
:100A300081111DC010E0812F0E94961C811104C0FD
:100A400087E00E94D61E0EC087E791E00E94C31E79
:100A5000812F0E949D1E8DE30E9445320E94891CB9
:100A60000E94D21E113009F498C111E0E4CF911117
:100A700084C111E001C010E0BE01635F7F4FCE0171
:100A800041960E94BE35811103C072E0F72E85C1E8
:100A9000E98981E08E0F898BF0E0EF5EF84F90815D
:100AA0009D3309F072C1112379F1482F50E0282FAE
:100AB00030E0F901EF5EF84F9081241B350BD9012E
:100AC000AF5EB84F9C938F5F90819111F0CF898B6F
:100AD0000E940B07811154C16D857E858F85988991
:100AE0000E940C3B0E944A386A8B0E9455346A89E6
:100AF000B1E56B9FC001112440E550E061E177E072
:100B00009D5F0E94DB2691CEBE016F5F7F4FCE01BD
:100B100041960E94BE35882309F4B7CFE989F0E0F9
:100B2000EF5EF84F8081811130C18D849E84AF8447
:100B3000B88820E030E04FE753E4C501B4010E94DB
:100B4000E93918160CF421C149805A806B807C80E9
:100B5000C501B4010E944A38062F20E030E0A90107
:100B6000C301B2010E94C73787FD0CC1043608F4E7
:100B700040C0045680E0033098F510E0000F111FCC
:100B8000000F111F823079F0F801833011F18130AC
:100B900019F0E55DFE4F02C0E95CFE4F40825182D4
:100BA00062827382E4C00D5B1E4F20E030E040E7BC
:100BB00052E4C301B2010E94293A20E030E040E74C
:100BC00052E40E94293AF8016083718382839383FF
:100BD000CEC0E15BFE4F77FA709477F87094DECF69
:100BE0008F5F0A3008F4D1C0843009F4CEC00A50B7
:100BF000C2CFC301B2010E940C3B0E944A3810E0F0
:100C00000132110508F0C1C0F801EC5CFF4F0C94F3
:100C1000B136633008F4BCC060935B01A8C0609338
:100C20005E01A5C060935C0102C060935D010E94FB
:100C3000C4149DC080917001662311F0846095C03A
:100C40008B7F93C080917001662311F080648DC00A
:100C50008F7B8BC080917001662311F0806801C08A
:100C60008F778093700180E00E94B21D80C06093F6
:100C70005F017DC04092600150926101609262010B
:100C80007092630174C04092640150926501609259
:100C90006601709267016BC080917001662311F04C
:100CA000816001C08E7F809370010E94661D5FC0CD
:100CB00080917001662321F084FF6DC0806255C071
:100CC0008F7D53C080917001662311F0886001C050
:100CD000877F809370010E94EB2049C08091700152
:100CE000662311F0806141C08F7C3FC06093710129
:100CF0003EC04092720150927301609274017092F2
:100D0000750135C04092760150927701609278016A
:100D1000709279012CC070E070937B0160937A012E
:100D200026C040927C0150927D0160927E017092BB
:100D30007F011DC0409268015092690160926A0172
:100D400070926B0108C040926C0150926D016092EC
:100D50006E0170926F010E948E3409C08091700103
:100D6000662311F0826001C08D7F809370010E9424
:100D70001A2713C055E0F52E10C048E0F42E0DC020
:100D8000F82E0BC034E0F32E08C023E0F22E05C08D
:100D900096E0F92E02C08AE0F82E8F2D08C08091CF
:100DA0001A01817211F089E0E6CB0E940B070E94C4
:100DB000E21EE3CB112329F0893209F0E0CB1D7F3D
:100DC000DECB813208F4DBCB8F3209F4D8CB88320A
:100DD00099F08B3399F00F3498F4202F30E0E1E054
:100DE000E00F9FE9980FD901AF5EB84F9A3108F430
:100DF00080528C930E2FC3CB12E0C1CB14E0BFCB3B
:100E000011E0BDCB87E00E94D61E8FEF0E944327E2
:100E10000E945B1FC5CA2F923F924F925F926F92C2
:100E20007F928F929F92AF92BF92CF92DF92EF927A
:100E3000FF920F931F93CF93DF93CDB7DEB7CA54C2
:100E4000D1090FB6F894DEBF0FBECDBF8AE3E0EC48
:100E5000F1E0DF011D928A95E9F78BE0E0E8F1E02F
:100E6000A1ECB1E001900D928A95E1F78091110714
:100E7000843211F00C94A61481E08093C101109289
:100E8000C20183E08A8FB1E0BBA3212C312C18AAC8
:100E90001FA6C12C1B8E1F8EDD24D3946AE0A62EC4
:100EA000B12C0EE571E6872E73E0972E8A8DE82F20
:100EB000F0E0EF5EF84FE080EE2009F43EC29FEBD9
:100EC0009E0D9A3110F00C9472148F5F8A8FBE01C0
:100ED0006A5E7F4FCE014A960E94BE35882311F488
:100EE0000C9474144E885F88688C798CC301B201AD
:100EF0000E940C3B0E944A38162F70E080E090E080
:100F00000E947B389B01AC01C301B2010E94D13623
:100F100020E030E048EC52E40E94293A0E94963AE0
:100F20000E944A38CB01E7E4EE1629F0FDE4EF1603
:100F300009F4EAC034C1183209F4C5C020F51431EF
:100F400068F4113108F08AC0143009F452C008F472
:100F500064C01A3009F445C00C9482141C3109F4A1
:100F600040C050F4163110F00C94821425E1211B7E
:100F70002093C30126E0ACC01E3199F1163209F46A
:100F80004CC00C9482141D3309F497C0A8F4153397
:100F900081F140F41B3209F47AC0113309F477C0AF
:100FA0000C9482141C3310F00C9482146AEC610FC0
:100FB0006093C70129E08CC01C3538F41A3508F05D
:100FC00053C0103581F10C9482141C3551F01F353B
:100FD00010F00C948214202F211B2093C20125E0D5
:100FE00077C0009731F42F8D21110C94761431E0E5
:100FF0003F8F1093C001212F2D7F2C3119F01C350C
:1010000009F063C0009721F00A9711F00C94821444
:10101000610F6093C00120E060C06F8D61110C947E
:101020007614A2E0AF8F1093C101163209F04FC0C1
:101030008431910559F08E31910541F08832910546
:1010400029F08233910511F00C948214B5010E94AD
:101050007B3666576093C10121E03FC06FEE610FA0
:101060006093C50122E034C0892B31F466EA610F38
:101070006093C40123E031C06A30710511F00C9413
:1010800082141A3511F40C94821424E026C0BF8D0A
:10109000B1110C947614113331F41092C60128E08A
:1010A000E3E0EF8F1AC00A9711F00C948214D092EB
:1010B000C60128E0F3E0FF8F10C0892B11F00C94DB
:1010C00082142AE00AC027E003C020E001C021E02A
:1010D000892B19F087E10C94AA1481E090E002C0FA
:1010E000880F991F2A95E2F72FA538A928233923BD
:1010F000232B19F085E10C94AA142FA538A9282BCD
:10110000392B38AB2FA7D2CE892B21F7163018F404
:10111000133058F016C0183010F40C9482141A30A2
:10112000F0F01E3159F00C948214112319F0113093
:1011300001F104C033E03093C8011BC01093C80113
:1011400018C0143021F0153031F080E101C080E288
:101150008093CA0102C01092CA018CE00BC0193002
:1011600021F080E48093C90102C01092C9018DE092
:1011700001C08BE0A1E0B0E002C0AA0FBB1F8A95BE
:10118000E2F72FA538A92A233B23232B09F0B2CF5E
:10119000EFA5F8A9EA2BFB2BF8ABEFA787CE8E2D96
:1011A000EE0C990BAA0BBB0BFC01E654F109E531DF
:1011B000F10510F00C948214EB5AFF4F0C94B136E9
:1011C0004092CC015092CD016092CE017092CF013D
:1011D00080E08DC04092D0015092D1016092D20146
:1011E0007092D301FC2DF160CF2E81E080C040923F
:1011F000D4015092D5016092D6017092D7012C2D66
:101200002260C22E82E073C04092D8015092D90170
:101210006092DA017092DB013C2D3460C32E83E0D2
:1012200066C01093DC0184E062C0C301B2010E9479
:1012300043386093DD017093DE018093DF0190936A
:10124000E00185E054C04092E1015092E2016092D9
:10125000E3017092E40186E04AC04092E5015092B9
:10126000E6016092E7017092E80187E040C0409299
:10127000E9015092EA016092EB017092EC0188E082
:1012800036C020E030E04FE753E4C301B2010E94D2
:10129000E939181614F40C9478141093ED0189E0D0
:1012A00026C04092EE015092EF016092F0017092E0
:1012B000F1016B8D61606B8F8AE019C04092F20181
:1012C0005092F3016092F4017092F5018B8D82606F
:1012D0008B8F8BE00CC04092F6015092F701609228
:1012E000F8017092F9019B8D94609B8F8CE0EE2445
:1012F000E394F12C082E02C0EE0CFF1C0A94E2F7D6
:10130000970122213321232B11F00C947A14D4015C
:1013100002C0B595A7958A95E2F7A0FF0BC020E023
:1013200030E0A901C301B2010E94C73787FF02C0A4
:101330000C947C142E283F28B9CDBB8DBB2329F0FB
:10134000EF8DE11102C0F2E0FF8F25FE0FC080910A
:10135000DD019091DE01A091DF01B091E0018138C3
:101360009649A849B10514F00C947E143BA133238F
:1013700001F120FC02C00C9488148091C3018130DB
:1013800009F03FC023E333E34BEC51E46091CC011F
:101390007091CD018091CE019091CF010E94293AA8
:1013A0006093CC017093CD018093CE019093CF01D7
:1013B00028C08091C201813071F46F8D623009F5CF
:1013C0008091C1018035E9F08823D9F020FC02C06A
:1013D0000C94881416C080918101811112C020FCE8
:1013E000CCCF80918F0190919001A0919101B0910B
:1013F00092018093CC019093CD01A093CE01B09344
:10140000CF0130FC10C080918B0190918C01A09194
:101410008D01B0918E018093E9019093EA01A09330
:10142000EB01B093EC018091C001843039F426FCCB
:1014300003C08CE10C94AA14E89426F88091C501AD
:10144000882369F0813029F48BAF1DAA92E09BAB11
:101450000BC01BAEA2E0ADABB1E0BBAB05C0E2E0A0
:10146000EBAFF1E0FDAB1BAA8091C301813021F00D
:101470002F8D2330A9F52BC04EEEE42E41E0F42E43
:1014800000E010E03B8DA32EB12CC501002E02C060
:10149000959587950A94E2F780FF10C023E333E324
:1014A0004BEC51E4D7016D917D918D919C910E94FF
:1014B000293AF70160837183828393830F5F1F4F03
:1014C000F4E0EF0EF11C03301105F9F6D1CF809155
:1014D000C601813029F42B8D243011F00C94801436
:1014E0008CE0E4EAF1E0DE01119601900D928A951C
:1014F000E1F78FA598A991FD09C09091C0019FA324
:101500009A30C9F09C3509F4AFC010C18091C70171
:10151000873018F08DE10C94AA14909186019817E9
:1015200061F3BE016F5F7F4F0E94B828882311F4DA
:101530000C949614E2CFAB8DA11103C08AE10C94F8
:10154000AA14C10180759927892B09F472CF609183
:10155000E1017091E2018091E3019091E4010E9428
:101560000C3B0E944A386730A8F68091DC01843138
:1015700041F0823011F00C94821427FE02C00C94CA
:101580008214BFEA2B22662319F061506DA703C0B5
:10159000E091C701EDA760ED71E08DA50E94B8282C
:1015A000882311F40C949614D090DC014090BC0177
:1015B0005090BD016090BE017090BF0100ED11E040
:1015C00038E9A32E31E0B32EE12CF12CFB8D8F2EC8
:1015D000912CC4010E2C02C0959587950A94E2F7D0
:1015E00080FF34C024E1D21228C0D50158962D9135
:1015F0003D914D915C915B976D917D918D919C9109
:101600000E94D136F801268D378D40A151A10E944C
:10161000D136D8016D937D938D939C931397B2E04F
:10162000EB16F10499F4A30192010E94D136F8015E
:10163000608371838283938309C0F801868D978DBF
:10164000A0A1B1A180839183A283B383FFEFEF1A9E
:10165000FF0A0C5F1F4F24E0A20EB11C33E0E3161B
:10166000F10409F0B6CF2FC16B8D662309F466CF64
:101670004090BC015090BD016090BE017090BF01D0
:101680000EEE11E0A12CB12CE12CF12C862E912C28
:10169000F501E058FE4FC4010E2C02C095958795C8
:1016A0000A94E2F780FF2BC0A1E0B0E0AC0FBD1FB1
:1016B000AA0DBB1D2D913D914D915C91608D718D59
:1016C000828D938D0E94D136D8012D913D914D91FF
:1016D0005C910E94D136F801608371838283938389
:1016E000F2E0EF16F104A1F4A30192010E94D136B9
:1016F000D8016D937D938D939C93139709C080A916
:1017000091A9A2A9B3A9F80180839183A283B3838D
:10171000FFEFEF1AFF0A24E0A20EB11C0C5F1F4F6F
:1017200033E0E316F10409F0B3CFCCC06F8D633022
:1017300071F48FA18E3109F48BC0853309F4BCC0DC
:101740008C3109F0BFC060ED71E086E084C09B8DF4
:10175000992379F3D090C4014090BC015090BD0111
:101760006090BE017090BF0128E9A22E21E0B22E48
:101770000EEE11E0DE0111964D01E12CF12CE92F66
:10178000F0E0FEA7EDA78DA59EA50E2C02C09595B5
:1017900087950A94E2F780FD0BC0F5018081918165
:1017A000A281B381F80180839183A283B3833FC078
:1017B000FFA1F533E1F1D11029C0D50158962D9143
:1017C0003D914D915C915B97F401608171818281C3
:1017D00093810E94D236D8012D913D914D915C911B
:1017E0000E94D236F8016083718382839383F2E092
:1017F000EF16F104E1F4A30192010E94D236D80160
:101800006D937D938D939C93139711C0F501208167
:10181000318142815381D8016D917D918D919C914F
:101820000E94D236F8016083718382839383FFEF35
:10183000EF1AFF0A24E0A20EB11C0C5F1F4F34E028
:10184000830E911C63E0E616F10409F09CCF71CF82
:1018500060ED71E087E00E94B828882311F40C94B1
:1018600096148B8D811103C01DA61F8E2CC020E005
:1018700030E080E090E0AB8D4A2F50E0BA01082EB6
:1018800002C0759567950A94E2F760FD0EC0F901F4
:10189000E058FE4F808C918CA28CB38CF901E054FF
:1018A000FE4F808A918AA28AB38A01962C5F3F4FAD
:1018B0008330910519F706C08091C101823010F084
:1018C0000C9484141DA6B091C101BFA3B03529F4B6
:1018D000EB8DE1110C94861474C2FF8DF23009F087
:1018E00070C22FA1211104C03B8D31116AC22BC0DF
:1018F00020E030E0A9016091CC017091CD01809190
:10190000CE019091CF010E94C737882311F40C9427
:1019100088146FA16C3809F43EC240F46230A9F01B
:101920006330B1F0613009F04CC20AC08FA18E382B
:1019300009F431C208F42CC28F3809F429C241C21B
:101940009B8D91113EC21F8E3CC2ABA1A460ABA384
:10195000BB8DBB2309F4F2CDEBA90E2F10E03DA9FE
:10196000232F30E03AA729A781E090E07C010DA861
:1019700002C0EE0CFF1C0A94E2F702C0880F991F08
:10198000EA95E2F7E82AF92A8B2F90E08E219F2131
:10199000892B09F4BFC7F801EE0FFF1FEE0FFF1FE1
:1019A000E054FE4FD801AA0FBB1FAA0FBB1FA856B9
:1019B000BE4F2D913D914D915C9166A577A580A973
:1019C00091A90E94D1364B015C01E9A5FAA5EE0F61
:1019D000FF1FEE0FFF1FE054FE4FA9A5BAA5AA0FE7
:1019E000BB1FAA0FBB1FA856BE4F2D913D914D9115
:1019F0005C9166A577A580A991A90E94D1366FABAD
:101A000078AF89AF9AAF310160E86622772427FE6C
:101A1000EFC0E89427F84CE050E06EEE71E088E902
:101A200091E00E94323B892B11F481E293C78091AF
:101A3000C3018130B1F423E333E34BEC51E4609113
:101A4000E5017091E6018091E7019091E8010E9423
:101A5000293A6093E5017093E6018093E701909342
:101A6000E8014090E5015090E6016090E701709038
:101A7000E801A5019401C501B4010E94293A239609
:101A80006CAF7DAF8EAF9FAF23972FA938AD49AD17
:101A90005AADCA01B9010E94293A27966CAF7DAFB1
:101AA0008EAF9FAF279720E030E040E850E4C301BD
:101AB000B2010E94293AA30192010E94293A239679
:101AC0002CAD3DAD4EAD5FAD23970E94D13627962C
:101AD0002CAD3DAD4EAD5FAD27970E94D1366B0169
:101AE0007C0120E030E0A9010E94C73787FD14C7C0
:101AF000C701B6010E94C83A6B017C0127962CAD44
:101B00003DAD4EAD5FAD279723966CAD7DAD8EADEF
:101B10009FAD23970E94D2360E94C83A9B01AC0128
:101B2000C701B60190580E94D1376B017C018FA18B
:101B3000833021F4F7FAF094F7F8F09420E030E0E5
:101B4000A901C301B2010E94C73787FF0FC0F7FA8E
:101B5000F094F7F8F094D301C201B0588093E501F6
:101B60009093E601A093E701B093E801000F111FE5
:101B7000000F111F00531E4FA70196016FA978ADEA
:101B800089AD9AAD0E94293A9B01AC01C501B4010F
:101B90000E94D13620E030E040E05FE30E94293A25
:101BA000D8016D937D938D939C93139709A51AA5E6
:101BB000000F111F000F111F00531E4FA7019601A8
:101BC000C501B4010E94293A9B01AC016FA978AD0F
:101BD00089AD9AAD0E94D23620E030E040E05FE36C
:101BE0000E94293AF8016083718382839383E9C05C
:101BF000D12CEC20FD20EF2809F490C6F1EF2F2224
:101C00008091C301813009F47CC0F801EE0FFF1F01
:101C1000EE0FFF1FE053FE4FC080D180E280F380C3
:101C2000A7019601C501B4010E94D1362B013C01E8
:101C3000E9A5FAA5EE0FFF1FEE0FFF1FE053FE4FC1
:101C400080819181A281B38189A79AA7ABA7BCA704
:101C50009C01AD016FA978AD89AD9AAD0E94D136D6
:101C60004B015C01A3019201C301B2010E94293A18
:101C70002B013C01A5019401C501B4010E94293A40
:101C80009B01AC01C301B2010E94D2360E94C83A46
:101C90004B015C01A7019601C701B6010E94293AD8
:101CA0006B017C0129A53AA54BA55CA5CA01B90128
:101CB0000E94293A9B01AC01C701B6010E94D236AD
:101CC0000E94C83A6B017C016093E5017093E601C4
:101CD0008093E7019093E8019B01AC01C501B40139
:101CE0000E94D1364B015C01E894B7F82AE037ED49
:101CF00043EA5BE3C501B4010E94E93918165CF1BF
:101D000060C090ECE92E91E0F92EC601062C02C0CD
:101D1000959587950A94E2F780FF12C023E333E399
:101D20004BEC51E4D70150966D917D918D919C9132
:101D300053970E94293AF701608B718B828B938BAA
:101D4000FFEF6F1A7F0A24E0E20EF11C33E0631606
:101D50007104D9F65ACF20E030E040E05FE3C501DE
:101D6000B4010E94E93918160CF45FCE2FE632E177
:101D700043E85AE3C701B6010E94293A9B01AC012E
:101D8000C501B4010E94E93918160CF44ECE19C0F1
:101D90006BA160616BA38FA18E58823018F48BA168
:101DA00088608BA39B8D992309F4C8CB4CE050E04D
:101DB0006EEE71E088E991E00E94323B892B09F4D4
:101DC00034CE2BA12170ABA1C101A0FF02C08E7D3A
:101DD00002C08E7D9C7FBF8DB111937E892B09F04F
:101DE0009FC58E01035F1F4F89E0F80111928A950C
:101DF000E9F7222309F44BC08FA598A9867B892B8C
:101E000009F090C58091C001853311F081118AC518
:101E100080918B0190918C01A0918D01B0918E01E8
:101E2000898B9A8BAB8BBC8B9091890180918801B7
:101E3000892B4091CC015091CD016091CE017091E0
:101E4000CF014D875E876F87788B84608D8B809103
:101E5000700185FF06C08EEE91E00E94E31C8111A7
:101E600063C5B8018EEE91E00E946D3580911A0134
:101E700081115EC50E94BA26892B09F459C580E2FA
:101E800080931A010E94D9280E94721751C580912F
:101E90007001F090890181FF26C09FA1915093307D
:101EA00018F0FBA1F064FBA32B8D222339F03F8DAA
:101EB000323021F46BA160686BA315C080E1F81289
:101EC00012C09091800191508BA18074933030F4B6
:101ED000882349F09BA190629BA305C0811103C098
:101EE000ABA1A062ABA38091DD019091DE01A09136
:101EF000DF01B091E0018093940190939501A0934C
:101F00009601B09397018091C2018093810188234B
:101F100011F088E08D8B8091CC019091CD01A09142
:101F2000CE01B091CF0180938F0190939001A09347
:101F30009101B09392018D879E87AF87B88B809077
:101F4000E9019090EA01A090EB01B090EC01A501AD
:101F5000940160918B0170918C0180918D01909121
:101F60008E010E94C737BBA1B074EB2E811103C054
:101F7000EBA1E5FF20C0FF2071F0FBA1F7FD0BC036
:101F8000EE2021F040E050E0BA0102C0B501A4010A
:101F90008F2D0E9466348091E9019091EA01A09111
:101FA000EB01B091EC0180938B0190938C01A09395
:101FB0008D01B0938E01E1100CC080918B01909146
:101FC0008C01A0918D01B0918E01898B9A8BAB8B86
:101FD000BC8B8091ED01809393018091CA01909117
:101FE0008901981751F049895A896B897C890E9427
:101FF00066348091CA01809389019D89809189010D
:10200000892B8D8B8091C901909188019817D1F00F
:1020100090911A01923051F02B968FAF2B970E941E
:1020200055342B968FAD2B970E9461328091C90158
:10203000811103C01092880105C090918801892BFD
:10204000809388019D8980918801892B8D8B809157
:10205000C001843049F56091E1017091E201809105
:10206000E3019091E40120911A012230E9F02896D1
:102070006FAF289729967FAF29972B968FAF2B9715
:102080002A969FAF2A970E94553440E028966FAD5C
:10209000289729967FAD29972B968FAD2B972A9657
:1020A0009FAD2A970E9402218091C50180938401EF
:1020B0008091C301809382012F8D233071F580912F
:1020C000C60180938501811108C01092F60110921B
:1020D000F7011092F8011092F901C090F601D0902A
:1020E000F701E090F801F090F901A70196016091E5
:1020F000BC017091BD018091BE019091BF010E9411
:10210000C737882351F0C092BC01D092BD01E09244
:10211000BE01F092BF010E94661D8091C70190919F
:102120008601981769F0809386018CE0FE01319654
:10213000A4EAB1E001900D928A95E1F70E94661D34
:102140008091C401809383018091C0018632F1F1B6
:1021500038F48C3109F18E31F9F08A3069F04FC0D2
:102160008C35D1F1863609F441C0883209F047C078
:1021700068E971E087E02DC060ED71E08DA50E94F7
:102180002727809186013DA5831339C08CE0E0EDBF
:10219000F1E0A4EAB1E025C08D8981608D8B6F8D5F
:1021A000662329F0B8018EEE91E00E946D35B801EA
:1021B00080ED91E00E946D358CE0E0EDF1E0A8E962
:1021C000B1E001900D928A95E1F719C068E971E0DC
:1021D00086E00E94272713C08CE0EEEEF1E0A0EB32
:1021E000B1E001900D928A95E1F707C08CE0E0EB39
:1021F000F1E0DF011D928A95E9F70E94661D80914A
:10220000C10180938001803509F41EC3BF8DB230B7
:1022100009F01AC3813021F4BE01635F7F4F06C00D
:10222000811109C08D8981608D8BB8018EEE91E09E
:102230000E946D3500C38250823008F095C28091B3
:10224000E5019091E601A091E701B091E8018F8F3F
:1022500098A3A9A3BAA3ABA994E0A99F70011124E4
:10226000F701E856FE4FF8A7EFA3970120533E4F22
:102270003EA72DA7D9014D905D906D907C90208157
:10228000318142815381C301B2010E94D2366FA7CE
:1022900078AB89AB9AABEDA9B4E0EB9F8001112438
:1022A000980128563E4F3CAB2BABC80180539E4F44
:1022B0009EAB8DABDC018D909D90AD90BC90F901F3
:1022C0002081318142815381C501B4010E94D236FF
:1022D0006FAB78AF89AF9AAF77FA709477F8709454
:1022E000D501C401B0588B8F9C8FAD8FBE8FF70185
:1022F000E251FE4F2FA538A949A95AA960817181E1
:10230000828193810E94D1366B017C01F801E251F8
:10231000FE4F2FA938AD49AD5AAD608171818281E0
:1023200093810E94D1364B015C01A7019601C30144
:10233000B2010E94293A69A77AA78BA79CA7A50199
:1023400094016B8D7C8D8D8D9E8D0E94293A9B0111
:10235000AC0169A57AA58BA59CA50E94D23669A778
:102360007AA78BA79CA7A5019401C301B2010E9483
:10237000293A4B015C01A70196016B8D7C8D8D8DF7
:102380009E8D0E94293A9B01AC01C501B4010E94B7
:10239000D13629A53AA54BA55CA50E9451376B0102
:1023A0007C019BA192FF13C02DEB37E346E055EB78
:1023B000C701B6010E94E93987FD1DC02BED3FE042
:1023C00049EC50E4C701B6010E94D13612C02DEB92
:1023D00037E346E055E3C701B6010E94C737181638
:1023E00054F02BED3FE049EC50E4C701B6010E94E8
:1023F000D2366B017C018090640190906501A090C1
:102400006601B09067012F8D38A149A15AA1CA0178
:10241000B9010E94D236A50194010E94D1369B01D8
:10242000AC01C501B4010E94293A0E94C83A4B018F
:102430005C0120E030E040E05FE3C701B6010E94AC
:10244000293A2F8D38A149A15AA10E94293A9F7794
:10245000A50194010E94D1370E94B6380E944A38E3
:102460007AA769A7DB01AB2B09F4D6CE1D894B01F6
:10247000A12CB12C13FF12C0C501B4010E94793800
:102480009B01AC016D857E858F8598890E94293AD4
:102490006D877E878F87988B177F1D8BC501B40151
:1024A0000E9479384B015C019B01AC01C701B60168
:1024B0000E94D1376BA37CA38DA39EA3EBADB4E0A8
:1024C000EB9FC00111248C0108561E4FFC01E25104
:1024D000FE4FD8012D913D914D915C9160817181AC
:1024E000828193810E94D136A50194010E94D13747
:1024F00027966CAF7DAF8EAF9FAF27972BA13CA1E6
:102500004DA15EA1CA01B9010E94293A9B01AC010B
:1025100060E070E080E090E40E94D1366B017C01C5
:102520002BEA3AEA4AE25EE36BA17CA18DA19EA16F
:102530000E94293A4B015C0120E030E040E850E481
:10254000C701B6010E94D2369B01AC01C501B4019E
:102550000E94293A6BAF7CAF8DAF9EAF20E030E098
:1025600040E05FE3C701B6010E94293A23966CAFB1
:102570007DAF8EAF9FAF23971F8E22242394312CE3
:10258000E9A5FAA52E163F0609F446CEBF8DBC304C
:1025900008F044C023962CAD3DAD4EAD5FAD239702
:1025A0006B8D7C8D8D8D9E8D0E94293A6B017C01F7
:1025B0002BAD3CAD4DAD5EADC301B2010E94293AD9
:1025C000A70196010E94D2367B016C0123962CADA7
:1025D0003DAD4EAD5FAD2397C301B2010E94293AD4
:1025E0004B015C012BAD3CAD4DAD5EAD6B8D7C8D7B
:1025F0008D8D9E8D0E94293A9B01AC01C501B401CD
:102600000E94D1362B013C01EF8DEF5FEF8F470128
:1026100056018B8E9C8EAD8EBE8E65C0B10180E062
:1026200090E00E9479382BA13CA14DA15EA10E94AF
:10263000293A6B017C010E94CC376B8F7C8F8D8F88
:102640009E8FC701B6010E94BA3A4B015C01ADA54D
:10265000BEA5CD90DD90ED90FC90F7FAF094F7F8E0
:10266000F094ADA9BEA98D919D910D90BC91A02D26
:102670008F8F98A3A9A3BAA32B8D3C8D4D8D5E8D12
:10268000C701B6010E94293A2B013C01A501940122
:102690006F8D78A189A19AA10E94293A9B01AC0172
:1026A000C301B2010E94D2362B013C01A501940165
:1026B000C701B6010E94293A6B017C012B8D3C8D2C
:1026C0004D8D5E8D6F8D78A189A19AA10E94293AC6
:1026D0009B01AC01C701B6010E94D1366B8F7C8F84
:1026E0008D8F9E8F1F8EA30192016FA578A989A956
:1026F0009AA90E94D236EFA1F8A5608371838283E4
:1027000093832B8D3C8D4D8D5E8D6FA978AD89ADFA
:102710009AAD0E94D236ABA9BCA96D937D938D93DF
:102720009C93139727962CAD3DAD4EAD5FAD27978B
:10273000F80160817181828193810E94D236D80133
:102740006D937D938D939C931397BE01635F7F4F31
:1027500088E991E00E946D3580911B0181116BC069
:10276000BFEF2B1A3B0A0CCF8D8984608D8B809133
:102770001A01823009F45FC00E94553480911B0118
:10278000811162C0FBA1F071FF2E10921F012BA1DD
:1027900023FB882780F90E94B21D86B18072909138
:1027A0000001891749F084E00E94CA1C0E94493345
:1027B00080E00E94B21D48C0B8018EEE91E00E94F8
:1027C0006D3581E08093190182E00E94DA1C0E943D
:1027D000493380911B01811137C080911A01811109
:1027E000F6CF80911901813081F4FF2051F08CE007
:1027F000E1E0F1E0ADE0B1E001900D928A95E1F702
:1028000007C085E00E94CA1C03C081E080931F01BD
:102810001092190180E00E94B21D0E9449330E946B
:10282000E0310E94CA260E9433210E9472208091CA
:102830001F01811188C08CE0EEEEF1E0A8E9B1E063
:1028400001900D928A95E1F78091C80180938701EC
:10285000882309F47FC00E945534809187019091AC
:102860001A01833041F49230D1F188E00E94DA1CE1
:102870000E94493334C081E080938001109284012A
:1028800010928301109281011092860110928901A9
:102890001092880184E68093210180932201809325
:1028A0002301923091F064EA71E080E00E94B82840
:1028B0008823E1F10E94661D40E050E0BA0180E00B
:1028C0000E941E3380E00E94613283EA92E00E94FF
:1028D000C31E8AE392E00E94C31E0E946D201092E4
:1028E00087012FC081E036C082E034C088E132C069
:1028F00086E230C089E12EC084E02CC08BE12AC082
:1029000085E228C084E126C08EE124C08FE122C088
:1029100086E120C080E21EC082E21CC083E21AC0B1
:1029200084E218C080E116C08FE014C087E012C0B6
:102930008CE0EEEEF1E0A8E9B1E001900D928A950D
:10294000E1F780E007C00E94C1347ECF1A8E1BA23F
:102950000C944507C65BDF4F0FB6F894DEBF0FBE81
:10296000CDBFDF91CF911F910F91FF90EF90DF903E
:10297000CF90BF90AF909F908F907F906F905F901F
:102980004F903F902F90089580915C01682F90E0C8
:1029900020915D01422F80FD94E0822F817020FD07
:1029A00080E261FD986041FD806462FD906142FDBE
:1029B000806890933F058093400508951F920F9281
:1029C0000FB60F9211248F939F938BB190913F0577
:1029D0009C71837E892B8BB915BC9F918F910F9031
:1029E0000FBE0F901F90189580916F008D7F809380
:1029F0006F0080918100887F8160809381001092B8
:102A0000410580915E0190911A018F3F39F4209128
:102A10003C05211103C0903881F402C0943069F064
:102A200090E0009741F0EFE9FFE03197F1F700C047
:102A300000000197F6CF81E001C080E09091700125
:102A400092FF02C091E08927882311F0289A089507
:102A5000289808951F920F920FB60F9211242F936A
:102A60003F934F935F936F937F938F939F93AF9316
:102A7000BF93EF93FF9380914105811122C28BB1E7
:102A800090915105907E8F71892B8BB98BB1837E8C
:102A900090915005892B8BB980914F0586BD82E0BE
:102AA00085BD81E080934105789480916305909184
:102AB0006405892B09F0BFC0809165059091900550
:102AC000981709F4A4C0E09165052E2F30E087E047
:102AD000E89FF0011124EA59FA4FF0936405E0935E
:102AE000630582819381909389008093880080811F
:102AF000918190935F0580935E05E48180916005EC
:102B00008E1761F1E093600582E1E89FF0011124E6
:102B1000EF56FA4FF0936205E09361058485958541
:102B2000A685B785B695A7959795879580934A050D
:102B300090934B05A0934C05B0934D0580934605AB
:102B400090934705A0934805B093490580934205AB
:102B500090934305A0934405B0934505A09161056A
:102B6000B09162059091400550968C9150978927BD
:102B70008093510587E0829FF001839FF00D11241F
:102B8000EA59FA4F25814D915D916D917C91139792
:102B9000022E04C076956795579547950A94D2F70B
:102BA0004093520550935305609354057093550517
:102BB00014964D915D916D917C911797022E04C0F2
:102BC00076956795579547950A94D2F740935605A1
:102BD00050935705609358057093590518968D9139
:102BE0009D910D90BC91A02D04C0B695A795979589
:102BF00087952A95D2F780935A0590935B05A09309
:102C00005C05B0935D0586810E94103314C00E945C
:102C1000F414E0916105F09162058189882339F00F
:102C20001092B3008091B0008F778093B00084E061
:102C30000E94DA1C46C1809119018130B1F486B13D
:102C4000807290910001891781F0109219018CE037
:102C5000E1E0F1E0ADE0B1E001900D928A95E1F79D
:102C600080913B05806480933B0510925005409114
:102C7000520550915305609154057091550580910E
:102C8000420590914305A0914405B0914505840FFC
:102C9000951FA61FB71F8093420590934305A093ED
:102CA0004405B0934505E0916105F09162054485C6
:102CB000558566857785481759076A077B0768F544
:102CC00024E0209350054485558566857785841BCF
:102CD000950BA60BB70B8093420590934305A093E9
:102CE0004405B0934505208980910101909102012E
:102CF000A0910301B091040125FF04C00197A1092F
:102D0000B10903C00196A11DB11D809301019093EB
:102D10000201A0930301B093040140915605509124
:102D2000570560915805709159058091460590911D
:102D30004705A0914805B0914905840F951FA61F2E
:102D4000B71F8093460590934705A0934805B0931D
:102D500049054485558566857785481759076A076B
:102D60007B0778F520915005286020935005448515
:102D7000558566857785841B950BA60BB70B8093CD
:102D8000460590934705A0934805B09349052089CF
:102D90008091050190910601A0910701B091080171
:102DA00026FF04C00197A109B10903C00196A11D26
:102DB000B11D8093050190930601A0930701B09384
:102DC000080140915A0550915B0560915C05709136
:102DD0005D0580914A0590914B05A0914C05B091FD
:102DE0004D05840F951FA61FB71F80934A0590932A
:102DF0004B05A0934C05B0934D05448555856685DC
:102E00007785481759076A077B0778F520915005A1
:102E10002061209350054485558566857785841B00
:102E2000950BA60BB70B80934A0590934B05A09387
:102E30004C05B0934D0520898091090190910A01BC
:102E4000A0910B01B0910C0127FF04C00197A109CB
:102E5000B10903C00196A11DB11D80930901909392
:102E60000A01A0930B01B0930C0180911A018430E8
:102E700039F4909120018091500589238093500569
:102E800080915E0590915F05019790935F05809317
:102E90005E05892B69F41092640510926305809198
:102EA00065058F5F80936505863011F41092650586
:102EB00090913F058091500589278093500510928D
:102EC0004105FF91EF91BF91AF919F918F917F91BC
:102ED0006F915F914F913F912F910F900FBE0F9087
:102EE0001F9018958091700182FF02C0289A01C03E
:102EF000289880913F058093500580915B01880F51
:102F00008450819580934F0580916F0082608093FB
:102F10006F0008953F924F925F926F927F928F92CF
:102F20009F92AF92BF92CF92DF92EF92FF920F9358
:102F30001F93CF93DF93CDB7DEB7A4970FB6F89466
:102F4000DEBF0FBECDBF10913C05112391F181E092
:102F500080931A0189EA92E00E94C31E812F0E9489
:102F60009D1E0E94D21E85EF91E0019739F0EFE996
:102F7000FFE03197F1F700C00000F7CF1150123099
:102F800030F08FB7F89410923C058FBF12C083EADF
:102F900092E00E94C31E81E992E00E94C31E0E943B
:102FA0006D2080E10E94D01C80913B0584FFFCCF06
:102FB000E8CF10913B05112309F4BEC214FF04C0F1
:102FC00081E080931B01BBC310FFC0C18CE0E1E036
:102FD000F1E0DE01599601900D928A95E1F7BE016C
:102FE000675E7F4FCE010D960E941E1D8CE30E94EE
:102FF000453280911A018830E1F058F4813099F11E
:10300000A8F0823099F1843009F043C084EF92E057
:103010003EC0803229F118F4803171F03AC080341A
:1030200041F18038B1F58CED92E031C087E093E05A
:103030002EC083E093E02BC080911C0187FD10C05F
:103040008DEF92E00E94C31E80911C0180FF06C09C
:1030500080E31AC082FF17C085FFFACF81E314C056
:1030600089EF92E014C08EEE92E011C088EE92E0FB
:103070000EC082EE92E00E94C31E80911C0183FF6D
:10308000E9CF83E301C082E30E94453202C00E947F
:10309000C31E80915F01F82FF170BF2E80FD15C017
:1030A0004090BC015090BD016090BE017090BF0186
:1030B00044EA842E41E0942E9E012F5F3F4F790118
:1030C000CE010D966C0100E02CC080912601882372
:1030D00039F385ED92E03FC0A30192010E94D23600
:1030E000F7016083718382839383B110F2CFF7017C
:1030F0002081318142815381F60160817181828119
:1031000093810E94D136F601608371838283938319
:103110000F5FF4E0EF0EF11C24E0C20ED11C03306F
:10312000B1F0F40161917191819191914F012085EC
:103130003185428553850E94D236F70160837183C1
:1031400082839383023041F2BB2089F2E1CFB11038
:10315000C0CF8EEC92E00E94C31ECE010D960E945D
:10316000801E80915F0181FF1FC089EC92E00E9468
:10317000C31E90911E058091FD01981710F0815F8C
:1031800001C08150891B0E949D1E8CE20E94453225
:103190008091FB019091FA01981710F0805801C0BE
:1031A0008150891B0E949D1E84EC92E00E94C31EE8
:1031B00080911A018C7749F06091020670910306A4
:1031C000809104069091050603C060E070E0CB0199
:1031D0000E94621E8CE20E9445326091270170912C
:1031E00028018091290190912A0140E00E94C41D8C
:1031F0000E94CB20F82E0E946B1D082F86B1982FBD
:10320000907280910001E92EE8268F2D802B8E2967
:1032100059F18FEB92E00E94C31EEE2019F080E579
:103220000E944532FF2079F0F0FE03C088E50E943D
:103230004532F1FE03C089E50E944532F2FE03C02B
:103240008AE50E944532002379F000FF03C082E541
:103250000E94453201FF03C088E40E94453202FF0C
:1032600003C083E50E94453280912601882321F026
:1032700081508093260118C080911A018C7711F03B
:103280008DE101C089E080932601809125018111A3
:1032900003C081E08093250189EB92E00E94C31E68
:1032A000CE0101960E94801E00912501002321F08D
:1032B00001500093250142C080911A018C7711F0D2
:1032C00083E101C089E08093250184EB92E00E94B4
:1032D000C31E809121010E949D1E8CE20E944532F6
:1032E000809122010E949D1E8CE20E9445328091B5
:1032F00023010E949D1E8091B00087FF05C02D997B
:1033000002C001E001C002E0439B03C0FF24F3942C
:1033100003C0002399F0F12C80EB92E00E94C31EC1
:10332000002339F0013011F483E501C083E40E94E9
:103330004532FF2019F086E40E9445328EE30E9458
:1033400045320E94D21E81E00E94D01C812F887ECF
:1033500009F469C080911A01982F937009F052C046
:103360008872A1F080911C01807C81F40E947630EB
:1033700082E080931E0180911A01803239F417FD9A
:1033800005C080911C01806880931C0180911A0106
:10339000811103C091E090931C0116FF07C085FDC9
:1033A00005C090911C01906490931C0113FF05C00F
:1033B000807E19F480E180931A0115FF23C083EA0F
:1033C00092E00E94C31E8FE492E00E94C31E0E94FE
:1033D0006D2080911C0187FD10C090911A019034DE
:1033E00039F483FF07C0837E826080931C0102C092
:1033F000903819F080E480931A0180911C0180625A
:1034000080931C0117FF0CC080911A01813029F4B0
:1034100080911C01856080931C0180E880931A01D3
:1034200088EE0E94D01C11FF44C0812F8876F1F5F0
:1034300080911A01803471F480911C0185FD0AC0CD
:1034400084FF03C010921A0105C082FF03C0886088
:1034500080931C0180911A01882381F084FF26C08B
:1034600090911C0190FF22C0803141F48091240191
:10347000882321F088608093240118C010921E01D7
:103480000E94BA26892B71F080911C0186FD0AC02A
:1034900010921C0188E080931A010E94D9280E9492
:1034A000721704C010921C0110921A0182E00E944F
:1034B000D01C12FF41C080911A01807D90911C01A7
:1034C0008823D9F080911D01811117C097FD15C087
:1034D0000E9476308091FD0180931B060E949A30F5
:1034E00080911E0181FF05C090911C019160909315
:1034F0001C01897F80931E011CC097FF0AC0109297
:103500001E010E94CA260E94E0310E94C1340E941E
:10351000332180911C0185FF08C08F7781608093E3
:103520001C0180E480931A0104C010921C011092C7
:103530001A0184E00E94D01C90913D05992309F462
:10354000ABC08FB7F89410923D058FBF4091210119
:1035500090FF02C084E601C0842F91FD865F92FD3A
:103560008A5093FD8F5F94FD8150893C08F088EC70
:103570008A3008F48AE03091220195FF02C024E6E7
:1035800001C0232F96FD22E397FD29E1841303C098
:10359000231709F481C08093210120932201109206
:1035A00025011091FD0130901E0589E9D82E96E77E
:1035B000E92E26E9F22E0EE732E3432E131509F425
:1035C00057C0812E912C489CC001499C900D11241C
:1035D000FC01E250FE4F5F01CF010E945521562EA3
:1035E000672E782EC92E2D2D3E2D4F2D502F0E9447
:1035F000E93918164CF42D2D3E2D4F2D502F6D2DE1
:103600007E2D8F2D902F08C0252D362D472D5C2D1A
:10361000652D762D872D9C2D0E94293AF501668B0C
:10362000778B808F918F489CC001499C900D11240D
:103630009C0122503E4F7901F90182A093A0A4A0E1
:10364000B5A0A501940166897789808D918D0E942E
:10365000E93918162CF4F701868A978AA08EB18E64
:103660001F5F103109F410E0D52C73010C2DA6CF8B
:103670008D2D9E2DAF2DB02F80933705909338055B
:10368000A0933905B0933A050E9476308091FD01F0
:1036900080931B060E949A3090913E05992309F46D
:1036A00048C08FB7F89410923E058FBF2091230138
:1036B00090FF02C084E601C0822F91FD865F92FDDB
:1036C0008A5093FD8F5F94FD8150893C08F088EC0F
:1036D0008A3008F48AE0821749F020911E012860A0
:1036E00020931E01809323011092250180911A01DD
:1036F00095FF0DC0803159F420912401211102C0A1
:1037000022E003C020FF03C0246020932401907CAA
:1037100081F0882311F0887161F01091880116FF03
:1037200002C01F7B01C01064812F0E946132109380
:10373000880180911A018C7F11F00E94D928A496EB
:103740000FB6F894DEBF0FBECDBFDF91CF911F91B2
:103750000F91FF90EF90DF90CF90BF90AF909F9030
:103760008F907F906F905F904F903F9008956F92F1
:103770007F928F929F92AF92BF92CF92DF92EF9201
:10378000FF920F931F93CF93DF93EB018C015B01AB
:103790008CE0A80EB11C89E9682E96E7792E26E9FF
:1037A000822E3EE7932EC990D990E990F99020E0BF
:1037B00030E0A901C701B6010E94C7378823B9F0DC
:1037C000A7019601F80160817181828193810E9435
:1037D000D1376B017C01E894F7F8A7019601B3019A
:1037E000C4010E94C73787FD02C0360147010C5F44
:1037F0001F4FCA15DB05B9F6B301C401DF91CF91A4
:103800001F910F91FF90EF90DF90CF90BF90AF90FE
:103810009F908F907F906F9008954F925F926F92DC
:103820007F92AF92BF92CF92DF92EF92FF920F936F
:103830001F93CF93DF93EC018C015C018CE0A80E09
:10384000B11CC12CD12C7601F801419051906190AE
:1038500071908F0120E030E0A901C301B2010E9404
:10386000C737882371F0A3019201C301B2010E94FE
:10387000293A9B01AC01C701B6010E94D2366B0107
:103880007C010A151B0501F7C701B6010E94C83A61
:103890002B013C019B01AC0160E070E080E89FE3FC
:1038A0000E94D1376B017C019B01AC016881798159
:1038B0008A819B810E94293A688379838A839B83CA
:1038C000A70196016C817D818E819F810E94293A9A
:1038D0006C837D838E839F83A7019601688579859C
:1038E0008A859B850E94293A688779878A879B8782
:1038F000C301B201DF91CF911F910F91FF90EF9023
:10390000DF90CF90BF90AF907F906F905F904F907F
:103910000895CF93DF93C1E1D7E08991882319F00F
:103920000E944532FACFDF91CF910895CF93DF9374
:1039300021E5829FC0011124EC01DD5F40E550E0EC
:10394000BE0181E197E00E947228892B69F41092F0
:1039500011070E94553440E550E061E177E0CE0167
:103960000E94DB2680E001C081E0DF91CF910895C5
:103970002FB7F89490913E05892B80933E052FBF79
:1039800008952FB7F89490913D05892B80933D05BC
:103990002FBF08959FB7F89480933C059FBF08956B
:1039A0002FB7F89490913B058095892380933B0530
:1039B0002FBF08952FB7F89490913B05892B8093E2
:1039C0003B052FBF0895AF92BF92CF92DF92EF9247
:1039D000FF920F931F93CF93DF93EC010FE411E05D
:1039E0005C018CE0A80EB11CC990D990E990F990C7
:1039F00020E030E0A901C701B6010E94E93918169C
:103A00008CF0F80121913191419151918F01C701C1
:103A1000B6010E94C73787FD05C0CA15DB0521F72F
:103A200080E001C081E0DF91CF911F910F91FF9065
:103A3000EF90DF90CF90BF90AF900895AF92BF927C
:103A4000CF92DF92EF92FF920F931F93CF93DF936A
:103A500000D000D0CDB7DEB75B012BE2E22E21E033
:103A6000F22E8C016B018CE0C80ED11CF501619126
:103A70007191819191915F01F70121913191419172
:103A800051917F0129833A834B835C830E947B3869
:103A900029813A814B815C810E94D137F801619381
:103AA0007193819391938F01AC14BD04F9F60F903B
:103AB0000F900F900F90DF91CF911F910F91FF907A
:103AC000EF90DF90CF90BF90AF9008950E94553453
:103AD00010922601089596B1892F877049F0892F99
:103AE0008095817091FF826092FD03C0846008958B
:103AF00080E008951F920F920FB60F9211242F931A
:103B00003F934F935F936F937F938F939F93AF9365
:103B1000BF93EF93FF930E946B1D882391F080FF6A
:103B200003C00E94C7340DC082FF04C080913B05D2
:103B3000826005C081FF05C080913B05886080934D
:103B40003B05FF91EF91BF91AF919F918F917F9135
:103B50006F915F914F913F912F910F900FBE0F90FA
:103B60001F901895109200019091700197FD03C06D
:103B700090E290930001882331F09091000180E25F
:103B800089278093000108958F929F92AF92BF92F0
:103B9000CF92DF92EF92FF920F931F93CF93DF9319
:103BA000CDB7DEB72D970FB6F894DEBF0FBECDBFF1
:103BB0006B017C01042F20E030E0A9010E94C7378F
:103BC00087FF07C08DE20E944532F7FAF094F7F8BC
:103BD000F094102F123060F020E030E048EC52E416
:103BE000C701B6010E94293A6B017C011250F2CF45
:103BF00000FF0AC020E030E040E251E4C701B60116
:103C00000E94293A6B017C0120E030E040E05FE354
:103C1000C701B6010E94D2360E94433810E03AE054
:103C2000832E912CA12CB12C611571058105910574
:103C300091F0EE24E394F12CEC0EFD1EE10EF11C4C
:103C4000A50194010E948F36605DF7016083B90180
:103C5000CA011F5FE9CF80E3101748F4E1E0F0E00C
:103C6000EC0FFD1FE10FF11D80831F5FF5CF1013D7
:103C700014C011E0100F80E3FE01E00FF11D8183FD
:103C80000CC0101303C08EE20E944532FE01E10F0A
:103C9000F11D80810E94453211501111F2CF2D96F5
:103CA0000FB6F894DEBF0FBECDBFDF91CF911F914D
:103CB0000F91FF90EF90DF90CF90BF90AF909F90CB
:103CC0008F9008952091700120FF08C02BE832E406
:103CD00041E25DE30E94293A41E001C040E00C94DA
:103CE000C41D2091700120FF08C02BE832E441E29E
:103CF0005DE30E94293A44E001C043E00C94C41DF6
:103D0000CF93DF93EC01688179818A819B810E9446
:103D1000711E8CE20E9445326C817D818E819F8173
:103D20000E94711E8CE20E944532688579858A85E1
:103D30009B85DF91CF910C94711ECF93DF938436D6
:103D400030F06AE00E946F36C0E3C90F03C0C0E0E4
:103D50008A3030F06AE00E946F36D0E3D90F01C09C
:103D6000D0E0805D0E944532DD2319F08D2F0E9446
:103D70004532CC2329F08C2FDF91CF910C94453222
:103D8000DF91CF910895CF93DF93FC018491EF01F0
:103D90002196882321F00E944532FE01F7CFDF9162
:103DA000CF9108958CE093E00C94C31ECF93C82F5D
:103DB00085E193E00E94C31E8C2F0E949D1ECF912F
:103DC0000C94D21E811104C08CE193E00C94C31EAC
:103DD0000C94D61ECF93DF93C0E08C2F0E94961CCC
:103DE00081110EC0109211078EE30E9445320E948D
:103DF000891C8AE30E94453287E00E94D61E12C0C9
:103E000080911107882371F00E940B07D82F8EE351
:103E10000E9445320E94891C8AE30E9445328D2F00
:103E20000E94E21EC13011F0C1E0D7CFDF91CF91E7
:103E30000895CF92DF92EF92FF921F93CF93DF937B
:103E40001F92CDB7DEB7182F6A017B0184E2298368
:103E50000E944532812F0E949D1E8DE30E944532B3
:103E60002981422FC701B6010E94C41D0F90DF9126
:103E7000CF911F91FF90EF90DF90CF900C94D21EC6
:103E80001F93CF93DF931F92CDB7DEB7182F84E235
:103E900069830E944532812F0E949D1E8DE30E94FE
:103EA00045326981862F0E949D1E0F90DF91CF9130
:103EB0001F910C94D21EEF92FF920F931F93CF93FA
:103EC000DF9360915B0170E080E00E94401F609191
:103ED0005E0170E081E00E94401F60915C0170E033
:103EE00082E00E94401F60915D0170E083E00E94CB
:103EF000401F6091700162FB662760F970E084E00A
:103F00000E94401F6091700166FB662760F970E0B7
:103F100085E00E94401F80917001082E000C990BD3
:103F2000692F661F6627661F70E086E00E94401FAB
:103F300060915F0170E08AE00E94401F4091600143
:103F400050916101609162017091630123E08BE007
:103F50000E94191F409164015091650160916601B2
:103F60007091670123E08CE00E94191F609170013D
:103F7000617070E08DE00E94401F6091700165FBF0
:103F8000662760F970E084E10E94401F6091700133
:103F900063FB662760F970E085E10E94401F609135
:103FA00070016295617070E086E10E94401F60912F
:103FB000710170E087E10E94401F409172015091B1
:103FC0007301609174017091750123E088E10E9492
:103FD000191F40917601509177016091780170919D
:103FE000790123E089E10E94191F60917A017091A3
:103FF0007B018AE10E94401F40917C0150917D012C
:1040000060917E0170917F0123E08BE10E94191F76
:10401000409168015091690160916A0170916B0152
:1040200020E08EE10E94191F40916C0150916D01BA
:1040300060916E0170916F0120E08FE10E94191F65
:10404000609170016695617070E080E20E94401F8F
:10405000D4E6F12C0BE211E083E0E82EED0ECD2F3B
:1040600082E0F81691F0E3E0FE16E9F0F1E0FF16C9
:1040700031F0F80140815181628173811AC0F801E9
:10408000448555856685778514C020E030E041E69B
:1040900055E4F801608D718D828D938D0E94D1372A
:1040A000AB01BC0106C0F80144A155A166A177A1EE
:1040B000705823E08C2F0E94191F0C5F1F4FCF5F99
:1040C000CE11CECFD65FF394DC3821F6DF91CF91BD
:1040D0001F910F91FF90EF9008958DE50E9445325A
:1040E0000C94D21ECF93DF93CDB7DEB72C970FB6CB
:1040F000F894DEBF0FBECDBF8FE093E00E94C31ED9
:104100006DE071E0CE0101960E941E1DCE01019668
:104110000E94801E8AE30E94453280911F010E9406
:104120009D1E0E946D202C960FB6F894DEBF0FBE28
:10413000CDBFDF91CF9108951F920F920FB60F92CE
:1041400011242F933F934F935F936F937F938F939C
:104150009F93AF93BF93EF93FF9380911A018130A8
:1041600049F080913C05811105C00E94C73481E06F
:104170000E94CA1CFF91EF91BF91AF919F918F91C7
:104180007F916F915F914F913F912F910F900FBE53
:104190000F901F90189593B196718091700186FDD4
:1041A00002C086E19827992349F091FB882780F97E
:1041B00092FD8260907119F08460089580E0089506
:1041C000EBE6F0E08081897E8083E8E6F0E08081A4
:1041D0008E7F8083089584B1897E84B985B186619C
:1041E00085B98091700183FF0BC080916B0086615F
:1041F00080936B00809168008160809368000895CF
:104200000C94E0200F931F93CF93C42F20E030E055
:1042100040EA51E40E94293A0E94B0370E944A388D
:104220008B0101151105D9F080911B01811117C077
:10423000C11103C00E94493306C00E948A178091B1
:104240001C0181FD0CC02FEF80E792E021508040DF
:104250009040E1F700C0000001501109E2CFCF917A
:104260001F910F910895EFE1F5E0A1E0B1E04D91CC
:104270005D916D917C911397408351836283738329
:1042800014964D915D916D917C9117974483558360
:104290006683778318968D919D910D90BC91A02D8A
:1042A00080879187A287B3870895BF92CF92DF92CC
:1042B000EF92FF920F931F93CF93DF937C01FC014A
:1042C00002A513A5D4A5C5A5818980FF18C060915A
:1042D000220170E080E090E00E947B382AE037ED18
:1042E00043E25CE30E94293A9B01AC01B8018D2FA7
:1042F0009C2F0E94293A8B01D82FC92F2DC082FDF7
:1043000017C06091210170E080E090E00E947B384E
:104310002AE037ED43E25CE30E94293A9B01AC01BD
:10432000B8018D2F9C2F0E94293A8B01D82FC92FBD
:10433000F701B6A0C7A0D0A4F1A42B2D3C2D4D2D84
:104340005F2DB8018D2F9C2F0E94E939181624F497
:104350000B2D1C2DDD2DCF2D20E030E040E85FE35C
:10436000B8018D2F9C2F0E94E939181624F000E027
:1043700010E0D0E8CFE3B8018D2F9C2FDF91CF91D3
:104380001F910F91FF90EF90DF90CF90BF90089515
:104390002F923F924F925F926F927F928F929F9255
:1043A000AF92BF92CF92DF92EF92FF920F931F9343
:1043B000CF93DF93CDB7DEB7CA54D1090FB6F894C7
:1043C000DEBF0FBECDBF4B01A0901E052A2C312CA5
:1043D00022E3229DA001239D500D1124BA016250B9
:1043E0007E4F7AAF69AFFB0111922A95E9F7F4018C
:1043F0002085FB01218BF401448155816681778101
:10440000E9ADFAAD46A757A760AB71AB21FF42C03B
:104410002CE0E1E0F1E0DE01599601900D922A9541
:10442000E1F78BAB9CAB2BE231E021963FAF2EAF97
:104430002197BE016B5D7F4F7EAF6DAFCE01499678
:1044400098AF8FABFE013D96FCAFEBAF62E3A69E4B
:104450009001112427963FAF2EAF2797FEABEDAB0F
:1044600000E010E0B12C82E3829D9001839D300D2D
:104470001124C90182509E4FFC013C962396FFAF48
:10448000EEAF23979C01205F3F4F25963FAF2EAFA5
:10449000259743C02CE0EFE1F5E0BDCF2796EEADC8
:1044A000FFAD2797E00FF11FE250FE4FC082D1828F
:1044B000E282F3822396EEADFFAD23972081318116
:1044C00042815381C216D306E406F50610F4690151
:1044D0007A012396EEADFFAD2397C082D182E282AE
:1044E000F3820E947B38A30192010E94D137EDA98B
:1044F000FEA96193719381939193FEABEDAB20E0A4
:1045000030E0A9010E94C73787FD41C0B3940C5F1A
:104510001F4F0C30110509F44CC0EBA9FCA96191A7
:10452000719181919191FCABEBAB2196EEADFFAD1A
:10453000219741905190619071902196FFAFEEAF1D
:104540002197A30192010E94293A0E94F639EDAD0C
:10455000FEAD6193719381939193FEAFEDAFEFA99F
:10456000F8ADC190D190E190F190F8AFEFAB6C193C
:104570007D098E099F096B017C0197FF8FCFCC24A9
:10458000DD247601C61AD70AE80AF90A87CFBB20CC
:1045900029F0F1E0BF1621F090E803C090E201C0DD
:1045A00090E42596EEADFFAD25978081892B808321
:1045B000ADCFCD28CE28CF2809F4A3C1CE010D96CA
:1045C0000E940D1C9B01AC0182E3829D8001839DB2
:1045D000100D112402501E4FF801268F378F40A373
:1045E00051A3BE01635F7F4F83E491E028962FAF14
:1045F000289729963FAF29972A964FAF2A972B964F
:104600005FAF2B970E94B71BF801628F738F848F67
:10461000958FBE01635F7F4F87E391E00E94B71BD8
:10462000F80166A377A380A791A7F18828962FADFC
:10463000289729963FAD29972A964FAD2A972B9612
:104640005FAD2B97F0FC09C0F4016081718182811C
:104650009381F3FC0E94293AF80162A773A784A70B
:1046600095A78091FD01A81611F0F1FE0DC082E31F
:10467000829DF001839DF00D1124E250FE4F128ABD
:10468000138A148A158A54C02BE235E03CAB2BAB5D
:104690008E010F5F1F4FBE01675E7F4F7AAB69AB24
:1046A000C12CD12C76010DAB1FABEBA9FCA98190DD
:1046B0009190A190B190FCABEBABEBADFCAD419018
:1046C000519061907190FCAFEBAFA3019201C501D5
:1046D000B4010E94293A9B01AC01C701B6010E94B6
:1046E000D1366B017C01A5019401C301B2010E9486
:1046F000D136F80161937193819391938F012BAD22
:104700003CAD69A97AA92617370779F62FEE3FEF56
:104710004FE75FE3C701B6010E94E93918166CF450
:1047200082E3829DF001839DF00D1124E250FE4F43
:1047300012A213A214A215A271C02FEE3FEF4FE7F1
:104740005FEBC701B6010E94C73787FF11C082E344
:10475000829DF001839DF00D1124E250FE4F89E906
:1047600096E7A6E9BEE782A393A3A4A3B5A356C088
:104770008DA99FA90E940D1C6DA97FA983E491E0DA
:104780000E94B71B4B015C01A701960160E070E03D
:1047900080E89FE30E94D13620E030E040E05FE314
:1047A0000E94293A0E94C83A6B017C012091600165
:1047B000309161014091620150916301C501B401E2
:1047C0000E94293AA70196010E94293A4B015C01F7
:1047D000A701960160E070E080E89FE30E94D13677
:1047E0009B01AC01C501B4010E94D1376B017C0172
:1047F00020E030E0A9010E94C73787FF03C0C12C29
:10480000D12C760182E3829DF001839DF00D11246D
:10481000E250FE4FC2A2D3A2E4A2F5A282E3829D9F
:104820008001839D100D112402501E4FF8018189D3
:1048300081FD69C089AD9AAD0E9455216B017C0153
:104840008090370590903805A0903905B0903A05D2
:10485000A50194010E94E93918162CF4A5019401D0
:10486000C501B40104C0A7019601C701B6010E94A9
:10487000293AF801668B778B808F918F82E3829D36
:104880008001839D100D112402501E4FF80182A05B
:1048900093A0A4A0B5A0A501940166897789808D15
:1048A000918D0E94E93918162CF4F801868A978AAE
:1048B000A08EB18EC0923705D0923805E0923905AE
:1048C000F0923A058CE0FE013D96ABE2B5E0019036
:1048D0000D928A95E1F78CE0FE01B596AFE1B5E067
:1048E00001900D928A95E1F78091FC0180931E055D
:1048F0008F5F803109F480E08093FC010E949A3040
:1049000002C080E001C081E0C65BDF4F0FB6F894C3
:10491000DEBF0FBECDBFDF91CF911F910F91FF90F2
:10492000EF90DF90CF90BF90AF909F908F907F904F
:104930006F905F904F903F902F9008952F923F92ED
:104940004F925F926F927F928F929F92AF92BF929F
:10495000CF92DF92EF92FF920F931F93CF93DF934B
:10496000CDB7DEB7A1970FB6F894DEBF0FBECDBFAF
:1049700090911B019111C3C18D8F3E012DE0620EFC
:10498000711C89E0D3011D928A95E9F786E08D8B31
:104990002FE4A22E21E0B22EFE0176964F0100E018
:1049A00010E0C12CD12C76013D8D232F30E03C8FBF
:1049B0002B8F902F0115110521F0013021F080E19E
:1049C00003C084E001C088E0D4018D934D01EB8DDC
:1049D000FC8D02C0F595E7959A95E2F7E0FF17C0C8
:1049E00020E030E040EC5FEBD5016D917D918D9141
:1049F0009C910E94293A1B012C019B01AC01C7012B
:104A0000B6010E94E939181614F0610172010F5FB6
:104A10001F4FB4E0AB0EB11C0330110551F62090CE
:104A2000760130907701409078015090790194E0C0
:104A3000A92EBB24B39461E071E0CE0101960E94DF
:104A40001E1D80917101882E912CFE01319621E06E
:104A500031E03A8F298F890120E030E060E070E09A
:104A6000D701C601B0588E8F9F8FA8A3B9A34B8DD5
:104A70005C8D022E02C0559547950A94E2F740FFDF
:104A80002BC06F5FD8011D921D921D921C9213972F
:104A9000A401022E02C0559547950A94E2F740FF03
:104AA00003C0BB2019F007C0BB2029F0C082D1820F
:104AB000E282F38208C08E8D9F8DA8A1B9A1808368
:104AC0009183A283B38346E150E04C0F5D1F420FF8
:104AD000531FDA014C91742B2F5F3F4F34960C5FBC
:104AE0001F4F2330310519F6172F70E080E090E05A
:104AF0000E9479380E94C83A9B01AC0110932001B2
:104B0000C201B1010E94293A6D877E878F87988BF9
:104B1000B301CE0101960E94C821B4E0B0931E01FA
:104B20000E94D9280E947217BB20E9F00E94CB2076
:104B3000FE01769620E030E090E06191462F41231F
:104B400059F0AC01022E02C0559547950A94E2F740
:104B500040FF02C0609516232F5F3F4F2330310581
:104B600061F7109320010E94D92880913B0584733E
:104B700039F110913B0514FF03C086E00E94CA1C66
:104B800015FF03C087E00E94CA1CB11007C00E9435
:104B9000CB20ED8D8E2339F088E003C012FF03C0D7
:104BA00089E00E94CA1C80913C05882329F00E945C
:104BB000C7340E944933A3C084E00E94D01C04C0C3
:104BC000812F8C7109F0B0CF0E94E03100917A0101
:104BD00010917B010115110549F08FE99FE00197C4
:104BE000F1F700C0000001501109F4CF91E0B9269F
:104BF000C9F020E030E040EA50E460917C0170911F
:104C00007D0180917E0190917F010E94293A6B0184
:104C10007C0120907201309073014090740150909B
:104C2000750110C0C0907C01D0907D01E0907E01A4
:104C3000F0907F01209076013090770140907801CC
:104C400050907901AA94A110F6CEC0907101D12C98
:104C500080907C0190907D01A0907E01B0907F01BA
:104C60002401350177FA709477F870948BE2E82E7E
:104C700081E0F82E8B8D9C8D002E02C09595879536
:104C80000A94E2F780FF2AC0C601002E02C0959563
:104C900087950A94E2F7D70180FF10C094962D9172
:104CA0003D914D915C919797C501B4010E94D23618
:104CB000F701208131814281538106C02D913D91C0
:104CC0004D915C91C301B2010E94293A0E94F639CC
:104CD000E98DFA8D60837183828393830F5F1F4F09
:104CE000298D3A8D2C5F3F4F3A8F298F34E0E30EA8
:104CF000F11C0330110509F0BDCF10921E01A196E1
:104D00000FB6F894DEBF0FBECDBFDF91CF911F91DC
:104D10000F91FF90EF90DF90CF90BF90AF909F905A
:104D20008F907F906F905F904F903F902F9008955D
:104D3000F894F999FECF92BD81BD81E08FBB80B51B
:104D40008627482F082E000C550B262F30E02423F1
:104D50003523232B39F06F3F19F060BD84E006C086
:104D600084E104C0882321F060BD84E28FBBF99AFE
:104D7000789408958091FD0190911E05981739F05F
:104D800022E3829FC001112482509E4F089580E04B
:104D900090E008958CE1EFE1F5E0DF011D928A9546
:104DA000E9F71092FD0110921E0581E08093FC014D
:104DB00010921B0608958F929F92AF92BF92CF924E
:104DC000DF92EF92FF920F931F93CF937C014A01E2
:104DD0006B01C40ED51E8B01C0E05C01A61AB70A98
:104DE000C8018A0D9B1D0C151D0599F0C11108C045
:104DF0002C2FCC0F330B232F221F2227221F01C061
:104E000021E0F80161918F01C22FC60F0E94982600
:104E1000E7CF6C2FC701880D991DCF911F910F917E
:104E2000FF90EF90DF90CF90BF90AF909F908F90CA
:104E30000C9498266AE080E090E00E94982645E570
:104E400050E06BE271E081E090E00C94DB26CF93C0
:104E5000DF9300D01F92CDB7DEB76A837B8389834F
:104E60000E94553489812DE0829FC00111244CE0BD
:104E700050E06A817B819E5F0F900F900F90DF91D1
:104E8000CF910C94DB26EF92FF920F931F93CF9359
:104E9000DF93CDB7DEB72C970FB6F894DEBF0FBE09
:104EA000CDBF182F80FFD5C08AE080935B0189E1D8
:104EB00080935E0110925C0110925D0181E080930D
:104EC0005F018AE097EDA3E2BCE3809360019093D9
:104ED0006101A0936201B09363018FE692E1A3E0C8
:104EE000BBE38093640190936501A0936601B09346
:104EF000670180E090E0AAE7B4E4809368019093B2
:104F00006901A0936A01B0936B0110926C01109239
:104F10006D0110926E0110926F011092710180E08C
:104F200090E0A8ECB1E48093720190937301A09398
:104F30007401B093750180E090E0AAEFB3E4809330
:104F4000760190937701A0937801B09379012AEFCD
:104F500030E030937B0120937A0140E050E060E83C
:104F60007FE340937C0150937D0160937E017093B9
:104F70007F011092700140E050E06AE773E44093D3
:104F80002B0150932C0160932D0170932E014093BF
:104F90002F0150933001609331017093320140939F
:104FA000330150933401609335017093360180933F
:104FB000370190933801A0933901B0933A0180935F
:104FC0003B0190933C01A0933D01B0933E0180933F
:104FD0003F0190934001A0934101B093420180E0D2
:104FE00090EAACE0B7E48093430190934401A0932E
:104FF0004501B09346018093470190934801A093E7
:105000004901B0934A0180934B0190934C01A093C6
:105010004D01B0934E0180E090E0A8E4B3EC8093A2
:105020004F0190935001A0935101B093520180938E
:10503000530190935401A0935501B093560180936E
:10504000570190935801A0935901B0935A010E94BF
:105050001A2711FF10C0CE0101967C018CE0F701E8
:1050600011928A95E9F700E0B701802F0E94272767
:105070000F5F0830C9F712FF14C060E080E093E0D2
:105080000E94982660E081E093E00E94982660E00C
:1050900081E593E00E94982660E082E593E00E941B
:1050A000982613FF0AC060E08EEA93E00E949826DB
:1050B00060E08FEA93E00E9498262C960FB6F89451
:1050C000DEBF0FBECDBFDF91CF911F910F91FF903B
:1050D000EF900895F999FECF92BD81BD81E08FBB1D
:1050E00080B508958F929F92AF92BF92CF92DF9238
:1050F000EF92FF920F931F93CF934B017A016C01B4
:10510000C40ED51E8C01C0E05B01A81AB90AC50106
:10511000800F911F0C151D0599F00E946A28C1117E
:1051200008C02C2FCC0F330B232F221F2227221F26
:1051300001C021E0C22FC80FF80181938F01E7CF92
:10514000C4018E0D9F1D0E946A2821E030E0C8171F
:1051500011F020E030E0C901CF911F910F91FF9035
:10516000EF90DF90CF90BF90AF909F908F90089579
:105170001F93CF93DF93182FEB018DE0189FB001A1
:1051800011247E5F4CE050E0CE010E947228892BF2
:1051900059F48CE0FE0111928A95E9F7BE01812F46
:1051A0000E94272780E001C081E0DF91CF911F910D
:1051B00008952F923F924F925F926F927F928F92BB
:1051C0009F92AF92BF92CF92DF92EF92FF920F9396
:1051D0001F93CF93DF93CDB7DEB7EE970FB6F8945A
:1051E000DEBF0FBECDBF80911E0180FD66C79091CE
:1051F000650580911C06981709F45FC780911F060A
:1052000090912006892B09F03BC310911E0112FFDB
:1052100009C080911E0522E3289FC00111248250FD
:105220009E4F02C00E94BA269093200680931F06CC
:1052300020901F06309020062114310409F43DC748
:105240000091EC05902F917000FF03C01092EC05C7
:10525000FEC08091EB058F5F853009F0982F909309
:10526000EB05E92EF12C32E13E9DF0013F9DF00D62
:105270001124EF56FA4FF0931E06E0931D06D1015C
:1052800050968C915097808B4D915D916D917C9152
:10529000DB01CA0123E0880F991FAA1FBB1F2A95B3
:1052A000D1F780839183A283B383D10114964D916A
:1052B0005D916D917C911797DB01CA0133E0880FF6
:1052C000991FAA1FBB1F3A95D1F784839583A683A4
:1052D000B783D10118964D915D916D917C911B978B
:1052E000DB01CA0143E0880F991FAA1FBB1F4A9523
:1052F000D1F780879187A287B387D1011C964D9102
:105300005D916D917C911F97DB01CA0153E0880F7D
:10531000991FAA1FBB1F5A95D1F784879587A68727
:10532000B787F10164857585868597850E947938F0
:105330006093F1057093F2058093F3059093F40563
:10534000D1015E962D913D914D915C9191970E9476
:10535000D1379B01AC016093F5057093F6058093FE
:10536000F7059093F80560E070E080EA9FE30E9403
:10537000D1376093F9057093FA058093FB059093FC
:10538000FC051092ED051092EE051092EF051092BB
:10539000F00511FD02C003FF1DC060910A06709167
:1053A0000B0680910C0690910D0660930206709397
:1053B000030680930406909305069B01AC010E94AE
:1053C000293AF101628B738B848B958B077F009355
:1053D000EC0511C0D10152966D917D918D919C91FA
:1053E00055970E94C83A6093020670930306809313
:1053F000040690930506B2E1BE9DC001BF9D900DCD
:105400001124FC01EF56FA4F7F01118A809170013F
:1054100081FF1DC0D10151968C91519785FF17C016
:105420009A962D913D914D915C919D9760E070E031
:1054300080E89FE30E94D1376093160670931706A9
:10544000809318069093190621E0F701218B1092A2
:10545000FE051092FF051092000610920106D10180
:105460005A968D919D910D90BC91A02D89839A8320
:10547000AB83BC839C01AD0160E070E080E09FE302
:105480000E94D1374B015C01F101468C578C60A022
:1054900071A011FF4BC0F2E0F093FD05D1015296CF
:1054A000CD90DD90ED90FC905597A70196010E945C
:1054B000293A9B01AC01C301B2010E94D1364B01D4
:1054C0005C0120E030E0A9010E94C73787FF1DC0C2
:1054D00029813A814B815C81CA01B9010E94D2368F
:1054E000A30192010E94293A9B01AC01C701B601B8
:1054F0000E94D1360E94C83A60930A0670930B0648
:1055000080930C0690930D06B8C18092FE05909290
:10551000FF05A0920006B092010610920A061092B2
:105520000B0610920C0610920D06A7C11092FD05F5
:1055300040920E0650920F0660921006709211066D
:1055400012FF0CC010920A0610920B0610920C0665
:1055500010920D06C12CD12C760124C0E091FD01E2
:10556000EF5FE03109F4E0E080911E05E81759F0A3
:10557000B2E3BE9FF0011124E250FE4FC288D388EF
:10558000E488F58803C0C12CD12C7601C701B6018F
:105590000E94C83A60930A0670930B0680930C062B
:1055A00090930D06C1010E945521698B7A8B8B8BDC
:1055B0009C8B9B01AC010E94293A6D837E838F8373
:1055C0009887D10152962D913D914D915C915597BF
:1055D00029873A874B875C879B01AC0169857A856F
:1055E0008B859C850E94E93918160CF070C02D81BE
:1055F0003E814F81588569857A858B859C850E947F
:10560000D1369B01AC01C501B4010E94293A9B012E
:10561000AC01C301B2010E94D13660930E067093B3
:105620000F06809310069093110620E030E0A90148
:105630000E94C73718163CF1B2E0B093FD052981EE
:105640003A814B815C81CA01B9010E94D236A30123
:1056500092010E94293A9B01AC0169857A858B856C
:105660009C850E94D1360E94C83A60930A067093C6
:105670000B0680930C0690930D068091EC058860D4
:105680008093EC05FAC0A70196016D817E818F8120
:1056900098850E94D1369B01AC01C501B4010E94DE
:1056A000293A609312067093130680931406909320
:1056B000150629893A894B895C892093060630931F
:1056C0000706409308065093090633E0BBC0A701C4
:1056D000960169857A858B859C850E94D1369B01D0
:1056E000AC01C501B4010E94293A9B01AC01C30180
:1056F000B2010E94D23620E030E040E05FE30E9439
:10570000293A6D877E878F87988B20E030E0A9014A
:105710000E94E93918160CF098C0A30192016D851A
:105720007E858F8598890E94C73787FF8AC0A70129
:1057300096016D817E818F8198850E94D1369B0173
:10574000AC01C501B4010E94293A6093120670931E
:10575000130680931406909315062D853E854F857C
:1057600058890E94C73787FF3BC089899A89AB89CE
:10577000BC898093060690930706A0930806B09311
:1057800009062D813E814F81588569857A858B85F3
:105790009C850E94C737811104C091E09093FD055C
:1057A0006CC029853A854B855C856D817E818F81B2
:1057B00098850E94D1369B01AC01C501B4010E94BD
:1057C000293A9B01AC01C301B2010E94D13660931A
:1057D0000E0670930F0680931006909311064DC02D
:1057E0002D853E854F85588920930E0630930F06F0
:1057F000409310065093110620931206309313061F
:10580000409314065093150629813A814B815C819F
:10581000CA01B9010E94D2362D853E854F8558892F
:105820000E94293AA70196010E94D2360E94C83AE6
:105830006093060670930706809308069093090606
:105840001CC032E03093FD0518C010920E06109275
:105850000F06109210061092110680910A06909180
:105860000B06A0910C06B0910D068093060690934E
:105870000706A0930806B0930906186010931E014E
:1058800080919005482F50E05A87498787E0849F90
:10589000F001859FF00D1124EA59FA4F8091EB0534
:1058A0008483A0911F06B0912006BEAFADAF5E9677
:1058B000BC91BEA3EDADFEADF78DFFA3ADADBEAD0A
:1058C0009096BC91B8A7EDADFEADF1A1F9A72091DE
:1058D000F9053091FA054091FB055091FC056EA148
:1058E0007FA18B2F9F2F0E94D1366AAB7BAB8CABF5
:1058F0009DAB20E030E0A9010E94C73787FF04C0BC
:105900001AAA1BAA1CAA1DAA20910E062D8330914B
:105910000F063D8740911006498B509111065D8B13
:10592000809106068A8F909107069B8FA0910806AA
:10593000AC8FB0910906BD8FE0911206EAA7F091F5
:105940001306FBA7209114062CA7309115063DA73E
:105950004091FD05498360900206709003064090D7
:105960000406509005065091FE055EA78091FF0544
:105970008FA79091000698ABA0910106A9ABB091BA
:105980000A06BEABE0910B06EFABF0910C06F8AF48
:1059900020910D0629AF2EA03FA008A519A58EE3E2
:1059A000C82E83ECD82E8EE2E82E89E3F82E1E8ACC
:1059B0001F8A188E198ECE8EDF8EE8A2F9A29981E9
:1059C000913009F4E7C008F474C0ADADBEAD5A968D
:1059D0002D913D914D915C915D97933009F009C1F6
:1059E000C701B6010E94293A4B015C0120E030E07A
:1059F00040E05FE30E94293A9B01AC01B301C20180
:105A00000E94D1369B01AC01C701B6010E94293A20
:105A10006AA37BA38CA39DA39B01AC01B101C80128
:105A20000E94D1361B018C012D813D8549895D89FC
:105A30000E94C73787FD0BC020E030E0A9016AA1B2
:105A40007BA18CA19DA10E94C73718165CF12D8106
:105A50003D8549895D896EA17FA188A599A50E9490
:105A6000D1369B01AC010E94D2366B017C012A8D9C
:105A70003B8D4C8D5D8DB301C2010E94D2369B01DE
:105A8000AC01C701B6010E94D1376B017C016A8C61
:105A90007B8C4C8C5D8C2D803D8409891D89B1E007
:105AA000B98311C1A5019401B301C2010E94D1368D
:105AB0006EC0EDADFEAD228D338D448D558DC70189
:105AC000B6010E94293A4B015C0120E030E040E041
:105AD0005FE30E94293A9B01AC01B301C2010E941D
